{"contracts/U2UBridge.sol":{"U2UBridge":{"abi":[{"inputs":[{"internalType":"address","name":"_wethAddress","type":"address"},{"internalType":"address","name":"_relayer","type":"address"}],"stateMutability":"nonpayable","type":"constructor"},{"inputs":[{"internalType":"address","name":"owner","type":"address"}],"name":"OwnableInvalidOwner","type":"error"},{"inputs":[{"internalType":"address","name":"account","type":"address"}],"name":"OwnableUnauthorizedAccount","type":"error"},{"anonymous":false,"inputs":[{"indexed":true,"internalType":"address","name":"from","type":"address"},{"indexed":true,"internalType":"address","name":"to","type":"address"},{"indexed":false,"internalType":"uint256","name":"amount","type":"uint256"},{"indexed":false,"internalType":"uint256","name":"destinationChainId","type":"uint256"},{"indexed":false,"internalType":"bytes32","name":"transferId","type":"bytes32"}],"name":"CrossChainTransfer","type":"event"},{"anonymous":false,"inputs":[{"indexed":true,"internalType":"address","name":"previousOwner","type":"address"},{"indexed":true,"internalType":"address","name":"newOwner","type":"address"}],"name":"OwnershipTransferred","type":"event"},{"anonymous":false,"inputs":[{"indexed":true,"internalType":"address","name":"to","type":"address"},{"indexed":false,"internalType":"uint256","name":"amount","type":"uint256"},{"indexed":true,"internalType":"bytes32","name":"transferId","type":"bytes32"}],"name":"WETHMinted","type":"event"},{"inputs":[{"internalType":"uint256","name":"destinationChainId","type":"uint256"},{"internalType":"address","name":"to","type":"address"}],"name":"bridge","outputs":[],"stateMutability":"payable","type":"function"},{"inputs":[],"name":"getBalance","outputs":[{"internalType":"uint256","name":"","type":"uint256"}],"stateMutability":"view","type":"function"},{"inputs":[{"internalType":"bytes32","name":"transferId","type":"bytes32"}],"name":"isTransferProcessed","outputs":[{"internalType":"bool","name":"","type":"bool"}],"stateMutability":"view","type":"function"},{"inputs":[{"internalType":"address","name":"to","type":"address"},{"internalType":"uint256","name":"amount","type":"uint256"},{"internalType":"bytes32","name":"transferId","type":"bytes32"}],"name":"mintWETH","outputs":[],"stateMutability":"nonpayable","type":"function"},{"inputs":[],"name":"owner","outputs":[{"internalType":"address","name":"","type":"address"}],"stateMutability":"view","type":"function"},{"inputs":[{"internalType":"bytes32","name":"","type":"bytes32"}],"name":"processedTransfers","outputs":[{"internalType":"bool","name":"","type":"bool"}],"stateMutability":"view","type":"function"},{"inputs":[],"name":"relayer","outputs":[{"internalType":"address","name":"","type":"address"}],"stateMutability":"view","type":"function"},{"inputs":[],"name":"renounceOwnership","outputs":[],"stateMutability":"nonpayable","type":"function"},{"inputs":[{"internalType":"address","name":"_relayer","type":"address"}],"name":"setRelayer","outputs":[],"stateMutability":"nonpayable","type":"function"},{"inputs":[{"internalType":"address","name":"_wethAddress","type":"address"}],"name":"setWETH","outputs":[],"stateMutability":"nonpayable","type":"function"},{"inputs":[{"internalType":"address","name":"newOwner","type":"address"}],"name":"transferOwnership","outputs":[],"stateMutability":"nonpayable","type":"function"},{"inputs":[],"name":"weth","outputs":[{"internalType":"contract WETH","name":"","type":"address"}],"stateMutability":"view","type":"function"},{"inputs":[{"internalType":"uint256","name":"amount","type":"uint256"}],"name":"withdrawETH","outputs":[],"stateMutability":"nonpayable","type":"function"}],"evm":{"bytecode":{"linkReferences":{},"object":"608060405234801561001057600080fd5b50604051610ad8380380610ad883398101604081905261002f916100fc565b338061005557604051631e4fbdf760e01b81526000600482015260240160405180910390fd5b61005e81610090565b50600180546001600160a01b039384166001600160a01b0319918216179091556002805492909316911617905561012f565b600080546001600160a01b038381166001600160a01b0319831681178455604051919092169283917f8be0079c531659141344cd1fd0a4f28419497f9722a3daafe3b4186f6b6457e09190a35050565b80516001600160a01b03811681146100f757600080fd5b919050565b6000806040838503121561010f57600080fd5b610118836100e0565b9150610126602084016100e0565b90509250929050565b61099a8061013e6000396000f3fe6080604052600436106100c25760003560e01c80638406c0791161007f578063dd910d7511610059578063dd910d7514610207578063e7567ed514610237578063f14210a614610257578063f2fde38b1461027757600080fd5b80638406c079146101b65780638da5cb5b146101d65780639394d2e8146101f457600080fd5b80630d171620146100c757806312065fe01461010c5780633fc8cef3146101275780635b769f3c1461015f5780636548e9bc14610181578063715018a6146101a1575b600080fd5b3480156100d357600080fd5b506100f76100e23660046108ae565b60009081526003602052604090205460ff1690565b60405190151581526020015b60405180910390f35b34801561011857600080fd5b50604051478152602001610103565b34801561013357600080fd5b50600154610147906001600160a01b031681565b6040516001600160a01b039091168152602001610103565b34801561016b57600080fd5b5061017f61017a3660046108e3565b610297565b005b34801561018d57600080fd5b5061017f61019c3660046108e3565b610313565b3480156101ad57600080fd5b5061017f610393565b3480156101c257600080fd5b50600254610147906001600160a01b031681565b3480156101e257600080fd5b506000546001600160a01b0316610147565b61017f610202366004610905565b6103a7565b34801561021357600080fd5b506100f76102223660046108ae565b60036020526000908152604090205460ff1681565b34801561024357600080fd5b5061017f610252366004610931565b610548565b34801561026357600080fd5b5061017f6102723660046108ae565b610767565b34801561028357600080fd5b5061017f6102923660046108e3565b6107f3565b61029f610831565b6001600160a01b0381166102f15760405162461bcd60e51b8152602060048201526014602482015273496e76616c69642057455448206164647265737360601b60448201526064015b60405180910390fd5b600180546001600160a01b0319166001600160a01b0392909216919091179055565b61031b610831565b6001600160a01b0381166103715760405162461bcd60e51b815260206004820152601760248201527f496e76616c69642072656c61796572206164647265737300000000000000000060448201526064016102e8565b600280546001600160a01b0319166001600160a01b0392909216919091179055565b61039b610831565b6103a5600061085e565b565b600034116103f75760405162461bcd60e51b815260206004820152601d60248201527f416d6f756e74206d7573742062652067726561746572207468616e203000000060448201526064016102e8565b6001600160a01b0381166104495760405162461bcd60e51b8152602060048201526019602482015278496e76616c696420726563697069656e74206164647265737360381b60448201526064016102e8565b816027146104995760405162461bcd60e51b815260206004820152601960248201527f496e76616c69642064657374696e6174696f6e20636861696e0000000000000060448201526064016102e8565b6040516bffffffffffffffffffffffff1933606090811b8216602084015283901b166034820152346048820152606881018390524260888201524360a882015260009060c80160408051601f19818403018152828252805160209182012034845290830186905290820181905291506001600160a01b0383169033907f91934a1949db5bcb76f8dc42f00143abe7d2df0b55194143d6d74dbd035cf146906060015b60405180910390a3505050565b6002546001600160a01b031633146105a25760405162461bcd60e51b815260206004820152601a60248201527f4f6e6c792072656c617965722063616e206d696e74205745544800000000000060448201526064016102e8565b6001600160a01b0383166105f45760405162461bcd60e51b8152602060048201526019602482015278496e76616c696420726563697069656e74206164647265737360381b60448201526064016102e8565b600082116106445760405162461bcd60e51b815260206004820152601d60248201527f416d6f756e74206d7573742062652067726561746572207468616e203000000060448201526064016102e8565b60008181526003602052604090205460ff16156106a35760405162461bcd60e51b815260206004820152601a60248201527f5472616e7366657220616c72656164792070726f63657373656400000000000060448201526064016102e8565b60008181526003602052604090819020805460ff1916600190811790915554905163f661e63160e01b81526001600160a01b03858116600483015260248201859052604482018490529091169063f661e63190606401600060405180830381600087803b15801561071357600080fd5b505af1158015610727573d6000803e3d6000fd5b5050505080836001600160a01b03167fbb00edbe8b00c53cf9f5fda154bb2e8c8591111d3860aa6080c4ebe9233607c38460405161053b91815260200190565b61076f610831565b804710156107b65760405162461bcd60e51b8152602060048201526014602482015273496e73756666696369656e742062616c616e636560601b60448201526064016102e8565b600080546040516001600160a01b039091169183156108fc02918491818181858888f193505050501580156107ef573d6000803e3d6000fd5b5050565b6107fb610831565b6001600160a01b03811661082557604051631e4fbdf760e01b8152600060048201526024016102e8565b61082e8161085e565b50565b6000546001600160a01b031633146103a55760405163118cdaa760e01b81523360048201526024016102e8565b600080546001600160a01b038381166001600160a01b0319831681178455604051919092169283917f8be0079c531659141344cd1fd0a4f28419497f9722a3daafe3b4186f6b6457e09190a35050565b6000602082840312156108c057600080fd5b5035919050565b80356001600160a01b03811681146108de57600080fd5b919050565b6000602082840312156108f557600080fd5b6108fe826108c7565b9392505050565b6000806040838503121561091857600080fd5b82359150610928602084016108c7565b90509250929050565b60008060006060848603121561094657600080fd5b61094f846108c7565b9560208501359550604090940135939250505056fea2646970667358221220356261b1831d340d7967cb8de7825d23b0e6cffb0059aa58e1a6f5208a7f194964736f6c63430008140033","opcodes":"PUSH1 0x80 PUSH1 0x40 MSTORE CALLVALUE DUP1 ISZERO PUSH2 0x10 JUMPI PUSH1 0x0 DUP1 REVERT JUMPDEST POP PUSH1 0x40 MLOAD PUSH2 0xAD8 CODESIZE SUB DUP1 PUSH2 0xAD8 DUP4 CODECOPY DUP2 ADD PUSH1 0x40 DUP2 SWAP1 MSTORE PUSH2 0x2F SWAP2 PUSH2 0xFC JUMP JUMPDEST CALLER DUP1 PUSH2 0x55 JUMPI PUSH1 0x40 MLOAD PUSH4 0x1E4FBDF7 PUSH1 0xE0 SHL DUP2 MSTORE PUSH1 0x0 PUSH1 0x4 DUP3 ADD MSTORE PUSH1 0x24 ADD PUSH1 0x40 MLOAD DUP1 SWAP2 SUB SWAP1 REVERT JUMPDEST PUSH2 0x5E DUP2 PUSH2 0x90 JUMP JUMPDEST POP PUSH1 0x1 DUP1 SLOAD PUSH1 0x1 PUSH1 0x1 PUSH1 0xA0 SHL SUB SWAP4 DUP5 AND PUSH1 0x1 PUSH1 0x1 PUSH1 0xA0 SHL SUB NOT SWAP2 DUP3 AND OR SWAP1 SWAP2 SSTORE PUSH1 0x2 DUP1 SLOAD SWAP3 SWAP1 SWAP4 AND SWAP2 AND OR SWAP1 SSTORE PUSH2 0x12F JUMP JUMPDEST PUSH1 0x0 DUP1 SLOAD PUSH1 0x1 PUSH1 0x1 PUSH1 0xA0 SHL SUB DUP4 DUP2 AND PUSH1 0x1 PUSH1 0x1 PUSH1 0xA0 SHL SUB NOT DUP4 AND DUP2 OR DUP5 SSTORE PUSH1 0x40 MLOAD SWAP2 SWAP1 SWAP3 AND SWAP3 DUP4 SWAP2 PUSH32 0x8BE0079C531659141344CD1FD0A4F28419497F9722A3DAAFE3B4186F6B6457E0 SWAP2 SWAP1 LOG3 POP POP JUMP JUMPDEST DUP1 MLOAD PUSH1 0x1 PUSH1 0x1 PUSH1 0xA0 SHL SUB DUP2 AND DUP2 EQ PUSH2 0xF7 JUMPI PUSH1 0x0 DUP1 REVERT JUMPDEST SWAP2 SWAP1 POP JUMP JUMPDEST PUSH1 0x0 DUP1 PUSH1 0x40 DUP4 DUP6 SUB SLT ISZERO PUSH2 0x10F JUMPI PUSH1 0x0 DUP1 REVERT JUMPDEST PUSH2 0x118 DUP4 PUSH2 0xE0 JUMP JUMPDEST SWAP2 POP PUSH2 0x126 PUSH1 0x20 DUP5 ADD PUSH2 0xE0 JUMP JUMPDEST SWAP1 POP SWAP3 POP SWAP3 SWAP1 POP JUMP JUMPDEST PUSH2 0x99A DUP1 PUSH2 0x13E PUSH1 0x0 CODECOPY PUSH1 0x0 RETURN INVALID PUSH1 0x80 PUSH1 0x40 MSTORE PUSH1 0x4 CALLDATASIZE LT PUSH2 0xC2 JUMPI PUSH1 0x0 CALLDATALOAD PUSH1 0xE0 SHR DUP1 PUSH4 0x8406C079 GT PUSH2 0x7F JUMPI DUP1 PUSH4 0xDD910D75 GT PUSH2 0x59 JUMPI DUP1 PUSH4 0xDD910D75 EQ PUSH2 0x207 JUMPI DUP1 PUSH4 0xE7567ED5 EQ PUSH2 0x237 JUMPI DUP1 PUSH4 0xF14210A6 EQ PUSH2 0x257 JUMPI DUP1 PUSH4 0xF2FDE38B EQ PUSH2 0x277 JUMPI PUSH1 0x0 DUP1 REVERT JUMPDEST DUP1 PUSH4 0x8406C079 EQ PUSH2 0x1B6 JUMPI DUP1 PUSH4 0x8DA5CB5B EQ PUSH2 0x1D6 JUMPI DUP1 PUSH4 0x9394D2E8 EQ PUSH2 0x1F4 JUMPI PUSH1 0x0 DUP1 REVERT JUMPDEST DUP1 PUSH4 0xD171620 EQ PUSH2 0xC7 JUMPI DUP1 PUSH4 0x12065FE0 EQ PUSH2 0x10C JUMPI DUP1 PUSH4 0x3FC8CEF3 EQ PUSH2 0x127 JUMPI DUP1 PUSH4 0x5B769F3C EQ PUSH2 0x15F JUMPI DUP1 PUSH4 0x6548E9BC EQ PUSH2 0x181 JUMPI DUP1 PUSH4 0x715018A6 EQ PUSH2 0x1A1 JUMPI JUMPDEST PUSH1 0x0 DUP1 REVERT JUMPDEST CALLVALUE DUP1 ISZERO PUSH2 0xD3 JUMPI PUSH1 0x0 DUP1 REVERT JUMPDEST POP PUSH2 0xF7 PUSH2 0xE2 CALLDATASIZE PUSH1 0x4 PUSH2 0x8AE JUMP JUMPDEST PUSH1 0x0 SWAP1 DUP2 MSTORE PUSH1 0x3 PUSH1 0x20 MSTORE PUSH1 0x40 SWAP1 KECCAK256 SLOAD PUSH1 0xFF AND SWAP1 JUMP JUMPDEST PUSH1 0x40 MLOAD SWAP1 ISZERO ISZERO DUP2 MSTORE PUSH1 0x20 ADD JUMPDEST PUSH1 0x40 MLOAD DUP1 SWAP2 SUB SWAP1 RETURN JUMPDEST CALLVALUE DUP1 ISZERO PUSH2 0x118 JUMPI PUSH1 0x0 DUP1 REVERT JUMPDEST POP PUSH1 0x40 MLOAD SELFBALANCE DUP2 MSTORE PUSH1 0x20 ADD PUSH2 0x103 JUMP JUMPDEST CALLVALUE DUP1 ISZERO PUSH2 0x133 JUMPI PUSH1 0x0 DUP1 REVERT JUMPDEST POP PUSH1 0x1 SLOAD PUSH2 0x147 SWAP1 PUSH1 0x1 PUSH1 0x1 PUSH1 0xA0 SHL SUB AND DUP2 JUMP JUMPDEST PUSH1 0x40 MLOAD PUSH1 0x1 PUSH1 0x1 PUSH1 0xA0 SHL SUB SWAP1 SWAP2 AND DUP2 MSTORE PUSH1 0x20 ADD PUSH2 0x103 JUMP JUMPDEST CALLVALUE DUP1 ISZERO PUSH2 0x16B JUMPI PUSH1 0x0 DUP1 REVERT JUMPDEST POP PUSH2 0x17F PUSH2 0x17A CALLDATASIZE PUSH1 0x4 PUSH2 0x8E3 JUMP JUMPDEST PUSH2 0x297 JUMP JUMPDEST STOP JUMPDEST CALLVALUE DUP1 ISZERO PUSH2 0x18D JUMPI PUSH1 0x0 DUP1 REVERT JUMPDEST POP PUSH2 0x17F PUSH2 0x19C CALLDATASIZE PUSH1 0x4 PUSH2 0x8E3 JUMP JUMPDEST PUSH2 0x313 JUMP JUMPDEST CALLVALUE DUP1 ISZERO PUSH2 0x1AD JUMPI PUSH1 0x0 DUP1 REVERT JUMPDEST POP PUSH2 0x17F PUSH2 0x393 JUMP JUMPDEST CALLVALUE DUP1 ISZERO PUSH2 0x1C2 JUMPI PUSH1 0x0 DUP1 REVERT JUMPDEST POP PUSH1 0x2 SLOAD PUSH2 0x147 SWAP1 PUSH1 0x1 PUSH1 0x1 PUSH1 0xA0 SHL SUB AND DUP2 JUMP JUMPDEST CALLVALUE DUP1 ISZERO PUSH2 0x1E2 JUMPI PUSH1 0x0 DUP1 REVERT JUMPDEST POP PUSH1 0x0 SLOAD PUSH1 0x1 PUSH1 0x1 PUSH1 0xA0 SHL SUB AND PUSH2 0x147 JUMP JUMPDEST PUSH2 0x17F PUSH2 0x202 CALLDATASIZE PUSH1 0x4 PUSH2 0x905 JUMP JUMPDEST PUSH2 0x3A7 JUMP JUMPDEST CALLVALUE DUP1 ISZERO PUSH2 0x213 JUMPI PUSH1 0x0 DUP1 REVERT JUMPDEST POP PUSH2 0xF7 PUSH2 0x222 CALLDATASIZE PUSH1 0x4 PUSH2 0x8AE JUMP JUMPDEST PUSH1 0x3 PUSH1 0x20 MSTORE PUSH1 0x0 SWAP1 DUP2 MSTORE PUSH1 0x40 SWAP1 KECCAK256 SLOAD PUSH1 0xFF AND DUP2 JUMP JUMPDEST CALLVALUE DUP1 ISZERO PUSH2 0x243 JUMPI PUSH1 0x0 DUP1 REVERT JUMPDEST POP PUSH2 0x17F PUSH2 0x252 CALLDATASIZE PUSH1 0x4 PUSH2 0x931 JUMP JUMPDEST PUSH2 0x548 JUMP JUMPDEST CALLVALUE DUP1 ISZERO PUSH2 0x263 JUMPI PUSH1 0x0 DUP1 REVERT JUMPDEST POP PUSH2 0x17F PUSH2 0x272 CALLDATASIZE PUSH1 0x4 PUSH2 0x8AE JUMP JUMPDEST PUSH2 0x767 JUMP JUMPDEST CALLVALUE DUP1 ISZERO PUSH2 0x283 JUMPI PUSH1 0x0 DUP1 REVERT JUMPDEST POP PUSH2 0x17F PUSH2 0x292 CALLDATASIZE PUSH1 0x4 PUSH2 0x8E3 JUMP JUMPDEST PUSH2 0x7F3 JUMP JUMPDEST PUSH2 0x29F PUSH2 0x831 JUMP JUMPDEST PUSH1 0x1 PUSH1 0x1 PUSH1 0xA0 SHL SUB DUP2 AND PUSH2 0x2F1 JUMPI PUSH1 0x40 MLOAD PUSH3 0x461BCD PUSH1 0xE5 SHL DUP2 MSTORE PUSH1 0x20 PUSH1 0x4 DUP3 ADD MSTORE PUSH1 0x14 PUSH1 0x24 DUP3 ADD MSTORE PUSH20 0x496E76616C696420574554482061646472657373 PUSH1 0x60 SHL PUSH1 0x44 DUP3 ADD MSTORE PUSH1 0x64 ADD JUMPDEST PUSH1 0x40 MLOAD DUP1 SWAP2 SUB SWAP1 REVERT JUMPDEST PUSH1 0x1 DUP1 SLOAD PUSH1 0x1 PUSH1 0x1 PUSH1 0xA0 SHL SUB NOT AND PUSH1 0x1 PUSH1 0x1 PUSH1 0xA0 SHL SUB SWAP3 SWAP1 SWAP3 AND SWAP2 SWAP1 SWAP2 OR SWAP1 SSTORE JUMP JUMPDEST PUSH2 0x31B PUSH2 0x831 JUMP JUMPDEST PUSH1 0x1 PUSH1 0x1 PUSH1 0xA0 SHL SUB DUP2 AND PUSH2 0x371 JUMPI PUSH1 0x40 MLOAD PUSH3 0x461BCD PUSH1 0xE5 SHL DUP2 MSTORE PUSH1 0x20 PUSH1 0x4 DUP3 ADD MSTORE PUSH1 0x17 PUSH1 0x24 DUP3 ADD MSTORE PUSH32 0x496E76616C69642072656C617965722061646472657373000000000000000000 PUSH1 0x44 DUP3 ADD MSTORE PUSH1 0x64 ADD PUSH2 0x2E8 JUMP JUMPDEST PUSH1 0x2 DUP1 SLOAD PUSH1 0x1 PUSH1 0x1 PUSH1 0xA0 SHL SUB NOT AND PUSH1 0x1 PUSH1 0x1 PUSH1 0xA0 SHL SUB SWAP3 SWAP1 SWAP3 AND SWAP2 SWAP1 SWAP2 OR SWAP1 SSTORE JUMP JUMPDEST PUSH2 0x39B PUSH2 0x831 JUMP JUMPDEST PUSH2 0x3A5 PUSH1 0x0 PUSH2 0x85E JUMP JUMPDEST JUMP JUMPDEST PUSH1 0x0 CALLVALUE GT PUSH2 0x3F7 JUMPI PUSH1 0x40 MLOAD PUSH3 0x461BCD PUSH1 0xE5 SHL DUP2 MSTORE PUSH1 0x20 PUSH1 0x4 DUP3 ADD MSTORE PUSH1 0x1D PUSH1 0x24 DUP3 ADD MSTORE PUSH32 0x416D6F756E74206D7573742062652067726561746572207468616E2030000000 PUSH1 0x44 DUP3 ADD MSTORE PUSH1 0x64 ADD PUSH2 0x2E8 JUMP JUMPDEST PUSH1 0x1 PUSH1 0x1 PUSH1 0xA0 SHL SUB DUP2 AND PUSH2 0x449 JUMPI PUSH1 0x40 MLOAD PUSH3 0x461BCD PUSH1 0xE5 SHL DUP2 MSTORE PUSH1 0x20 PUSH1 0x4 DUP3 ADD MSTORE PUSH1 0x19 PUSH1 0x24 DUP3 ADD MSTORE PUSH25 0x496E76616C696420726563697069656E742061646472657373 PUSH1 0x38 SHL PUSH1 0x44 DUP3 ADD MSTORE PUSH1 0x64 ADD PUSH2 0x2E8 JUMP JUMPDEST DUP2 PUSH1 0x27 EQ PUSH2 0x499 JUMPI PUSH1 0x40 MLOAD PUSH3 0x461BCD PUSH1 0xE5 SHL DUP2 MSTORE PUSH1 0x20 PUSH1 0x4 DUP3 ADD MSTORE PUSH1 0x19 PUSH1 0x24 DUP3 ADD MSTORE PUSH32 0x496E76616C69642064657374696E6174696F6E20636861696E00000000000000 PUSH1 0x44 DUP3 ADD MSTORE PUSH1 0x64 ADD PUSH2 0x2E8 JUMP JUMPDEST PUSH1 0x40 MLOAD PUSH12 0xFFFFFFFFFFFFFFFFFFFFFFFF NOT CALLER PUSH1 0x60 SWAP1 DUP2 SHL DUP3 AND PUSH1 0x20 DUP5 ADD MSTORE DUP4 SWAP1 SHL AND PUSH1 0x34 DUP3 ADD MSTORE CALLVALUE PUSH1 0x48 DUP3 ADD MSTORE PUSH1 0x68 DUP2 ADD DUP4 SWAP1 MSTORE TIMESTAMP PUSH1 0x88 DUP3 ADD MSTORE NUMBER PUSH1 0xA8 DUP3 ADD MSTORE PUSH1 0x0 SWAP1 PUSH1 0xC8 ADD PUSH1 0x40 DUP1 MLOAD PUSH1 0x1F NOT DUP2 DUP5 SUB ADD DUP2 MSTORE DUP3 DUP3 MSTORE DUP1 MLOAD PUSH1 0x20 SWAP2 DUP3 ADD KECCAK256 CALLVALUE DUP5 MSTORE SWAP1 DUP4 ADD DUP7 SWAP1 MSTORE SWAP1 DUP3 ADD DUP2 SWAP1 MSTORE SWAP2 POP PUSH1 0x1 PUSH1 0x1 PUSH1 0xA0 SHL SUB DUP4 AND SWAP1 CALLER SWAP1 PUSH32 0x91934A1949DB5BCB76F8DC42F00143ABE7D2DF0B55194143D6D74DBD035CF146 SWAP1 PUSH1 0x60 ADD JUMPDEST PUSH1 0x40 MLOAD DUP1 SWAP2 SUB SWAP1 LOG3 POP POP POP JUMP JUMPDEST PUSH1 0x2 SLOAD PUSH1 0x1 PUSH1 0x1 PUSH1 0xA0 SHL SUB AND CALLER EQ PUSH2 0x5A2 JUMPI PUSH1 0x40 MLOAD PUSH3 0x461BCD PUSH1 0xE5 SHL DUP2 MSTORE PUSH1 0x20 PUSH1 0x4 DUP3 ADD MSTORE PUSH1 0x1A PUSH1 0x24 DUP3 ADD MSTORE PUSH32 0x4F6E6C792072656C617965722063616E206D696E742057455448000000000000 PUSH1 0x44 DUP3 ADD MSTORE PUSH1 0x64 ADD PUSH2 0x2E8 JUMP JUMPDEST PUSH1 0x1 PUSH1 0x1 PUSH1 0xA0 SHL SUB DUP4 AND PUSH2 0x5F4 JUMPI PUSH1 0x40 MLOAD PUSH3 0x461BCD PUSH1 0xE5 SHL DUP2 MSTORE PUSH1 0x20 PUSH1 0x4 DUP3 ADD MSTORE PUSH1 0x19 PUSH1 0x24 DUP3 ADD MSTORE PUSH25 0x496E76616C696420726563697069656E742061646472657373 PUSH1 0x38 SHL PUSH1 0x44 DUP3 ADD MSTORE PUSH1 0x64 ADD PUSH2 0x2E8 JUMP JUMPDEST PUSH1 0x0 DUP3 GT PUSH2 0x644 JUMPI PUSH1 0x40 MLOAD PUSH3 0x461BCD PUSH1 0xE5 SHL DUP2 MSTORE PUSH1 0x20 PUSH1 0x4 DUP3 ADD MSTORE PUSH1 0x1D PUSH1 0x24 DUP3 ADD MSTORE PUSH32 0x416D6F756E74206D7573742062652067726561746572207468616E2030000000 PUSH1 0x44 DUP3 ADD MSTORE PUSH1 0x64 ADD PUSH2 0x2E8 JUMP JUMPDEST PUSH1 0x0 DUP2 DUP2 MSTORE PUSH1 0x3 PUSH1 0x20 MSTORE PUSH1 0x40 SWAP1 KECCAK256 SLOAD PUSH1 0xFF AND ISZERO PUSH2 0x6A3 JUMPI PUSH1 0x40 MLOAD PUSH3 0x461BCD PUSH1 0xE5 SHL DUP2 MSTORE PUSH1 0x20 PUSH1 0x4 DUP3 ADD MSTORE PUSH1 0x1A PUSH1 0x24 DUP3 ADD MSTORE PUSH32 0x5472616E7366657220616C72656164792070726F636573736564000000000000 PUSH1 0x44 DUP3 ADD MSTORE PUSH1 0x64 ADD PUSH2 0x2E8 JUMP JUMPDEST PUSH1 0x0 DUP2 DUP2 MSTORE PUSH1 0x3 PUSH1 0x20 MSTORE PUSH1 0x40 SWAP1 DUP2 SWAP1 KECCAK256 DUP1 SLOAD PUSH1 0xFF NOT AND PUSH1 0x1 SWAP1 DUP2 OR SWAP1 SWAP2 SSTORE SLOAD SWAP1 MLOAD PUSH4 0xF661E631 PUSH1 0xE0 SHL DUP2 MSTORE PUSH1 0x1 PUSH1 0x1 PUSH1 0xA0 SHL SUB DUP6 DUP2 AND PUSH1 0x4 DUP4 ADD MSTORE PUSH1 0x24 DUP3 ADD DUP6 SWAP1 MSTORE PUSH1 0x44 DUP3 ADD DUP5 SWAP1 MSTORE SWAP1 SWAP2 AND SWAP1 PUSH4 0xF661E631 SWAP1 PUSH1 0x64 ADD PUSH1 0x0 PUSH1 0x40 MLOAD DUP1 DUP4 SUB DUP2 PUSH1 0x0 DUP8 DUP1 EXTCODESIZE ISZERO DUP1 ISZERO PUSH2 0x713 JUMPI PUSH1 0x0 DUP1 REVERT JUMPDEST POP GAS CALL ISZERO DUP1 ISZERO PUSH2 0x727 JUMPI RETURNDATASIZE PUSH1 0x0 DUP1 RETURNDATACOPY RETURNDATASIZE PUSH1 0x0 REVERT JUMPDEST POP POP POP POP DUP1 DUP4 PUSH1 0x1 PUSH1 0x1 PUSH1 0xA0 SHL SUB AND PUSH32 0xBB00EDBE8B00C53CF9F5FDA154BB2E8C8591111D3860AA6080C4EBE9233607C3 DUP5 PUSH1 0x40 MLOAD PUSH2 0x53B SWAP2 DUP2 MSTORE PUSH1 0x20 ADD SWAP1 JUMP JUMPDEST PUSH2 0x76F PUSH2 0x831 JUMP JUMPDEST DUP1 SELFBALANCE LT ISZERO PUSH2 0x7B6 JUMPI PUSH1 0x40 MLOAD PUSH3 0x461BCD PUSH1 0xE5 SHL DUP2 MSTORE PUSH1 0x20 PUSH1 0x4 DUP3 ADD MSTORE PUSH1 0x14 PUSH1 0x24 DUP3 ADD MSTORE PUSH20 0x496E73756666696369656E742062616C616E6365 PUSH1 0x60 SHL PUSH1 0x44 DUP3 ADD MSTORE PUSH1 0x64 ADD PUSH2 0x2E8 JUMP JUMPDEST PUSH1 0x0 DUP1 SLOAD PUSH1 0x40 MLOAD PUSH1 0x1 PUSH1 0x1 PUSH1 0xA0 SHL SUB SWAP1 SWAP2 AND SWAP2 DUP4 ISZERO PUSH2 0x8FC MUL SWAP2 DUP5 SWAP2 DUP2 DUP2 DUP2 DUP6 DUP9 DUP9 CALL SWAP4 POP POP POP POP ISZERO DUP1 ISZERO PUSH2 0x7EF JUMPI RETURNDATASIZE PUSH1 0x0 DUP1 RETURNDATACOPY RETURNDATASIZE PUSH1 0x0 REVERT JUMPDEST POP POP JUMP JUMPDEST PUSH2 0x7FB PUSH2 0x831 JUMP JUMPDEST PUSH1 0x1 PUSH1 0x1 PUSH1 0xA0 SHL SUB DUP2 AND PUSH2 0x825 JUMPI PUSH1 0x40 MLOAD PUSH4 0x1E4FBDF7 PUSH1 0xE0 SHL DUP2 MSTORE PUSH1 0x0 PUSH1 0x4 DUP3 ADD MSTORE PUSH1 0x24 ADD PUSH2 0x2E8 JUMP JUMPDEST PUSH2 0x82E DUP2 PUSH2 0x85E JUMP JUMPDEST POP JUMP JUMPDEST PUSH1 0x0 SLOAD PUSH1 0x1 PUSH1 0x1 PUSH1 0xA0 SHL SUB AND CALLER EQ PUSH2 0x3A5 JUMPI PUSH1 0x40 MLOAD PUSH4 0x118CDAA7 PUSH1 0xE0 SHL DUP2 MSTORE CALLER PUSH1 0x4 DUP3 ADD MSTORE PUSH1 0x24 ADD PUSH2 0x2E8 JUMP JUMPDEST PUSH1 0x0 DUP1 SLOAD PUSH1 0x1 PUSH1 0x1 PUSH1 0xA0 SHL SUB DUP4 DUP2 AND PUSH1 0x1 PUSH1 0x1 PUSH1 0xA0 SHL SUB NOT DUP4 AND DUP2 OR DUP5 SSTORE PUSH1 0x40 MLOAD SWAP2 SWAP1 SWAP3 AND SWAP3 DUP4 SWAP2 PUSH32 0x8BE0079C531659141344CD1FD0A4F28419497F9722A3DAAFE3B4186F6B6457E0 SWAP2 SWAP1 LOG3 POP POP JUMP JUMPDEST PUSH1 0x0 PUSH1 0x20 DUP3 DUP5 SUB SLT ISZERO PUSH2 0x8C0 JUMPI PUSH1 0x0 DUP1 REVERT JUMPDEST POP CALLDATALOAD SWAP2 SWAP1 POP JUMP JUMPDEST DUP1 CALLDATALOAD PUSH1 0x1 PUSH1 0x1 PUSH1 0xA0 SHL SUB DUP2 AND DUP2 EQ PUSH2 0x8DE JUMPI PUSH1 0x0 DUP1 REVERT JUMPDEST SWAP2 SWAP1 POP JUMP JUMPDEST PUSH1 0x0 PUSH1 0x20 DUP3 DUP5 SUB SLT ISZERO PUSH2 0x8F5 JUMPI PUSH1 0x0 DUP1 REVERT JUMPDEST PUSH2 0x8FE DUP3 PUSH2 0x8C7 JUMP JUMPDEST SWAP4 SWAP3 POP POP POP JUMP JUMPDEST PUSH1 0x0 DUP1 PUSH1 0x40 DUP4 DUP6 SUB SLT ISZERO PUSH2 0x918 JUMPI PUSH1 0x0 DUP1 REVERT JUMPDEST DUP3 CALLDATALOAD SWAP2 POP PUSH2 0x928 PUSH1 0x20 DUP5 ADD PUSH2 0x8C7 JUMP JUMPDEST SWAP1 POP SWAP3 POP SWAP3 SWAP1 POP JUMP JUMPDEST PUSH1 0x0 DUP1 PUSH1 0x0 PUSH1 0x60 DUP5 DUP7 SUB SLT ISZERO PUSH2 0x946 JUMPI PUSH1 0x0 DUP1 REVERT JUMPDEST PUSH2 0x94F DUP5 PUSH2 0x8C7 JUMP JUMPDEST SWAP6 PUSH1 0x20 DUP6 ADD CALLDATALOAD SWAP6 POP PUSH1 0x40 SWAP1 SWAP5 ADD CALLDATALOAD SWAP4 SWAP3 POP POP POP JUMP INVALID LOG2 PUSH5 0x6970667358 0x22 SLT KECCAK256 CALLDATALOAD PUSH3 0x61B183 SAR CALLVALUE 0xD PUSH26 0x67CB8DE7825D23B0E6CFFB0059AA58E1A6F5208A7F194964736F PUSH13 0x63430008140033000000000000 "},"methodIdentifiers":{"bridge(uint256,address)":"9394d2e8","getBalance()":"12065fe0","isTransferProcessed(bytes32)":"0d171620","mintWETH(address,uint256,bytes32)":"e7567ed5","owner()":"8da5cb5b","processedTransfers(bytes32)":"dd910d75","relayer()":"8406c079","renounceOwnership()":"715018a6","setRelayer(address)":"6548e9bc","setWETH(address)":"5b769f3c","transferOwnership(address)":"f2fde38b","weth()":"3fc8cef3","withdrawETH(uint256)":"f14210a6"}}}}}