{"contracts/WETH.sol":{"WETH":{"abi":[{"inputs":[],"stateMutability":"nonpayable","type":"constructor"},{"inputs":[{"internalType":"address","name":"spender","type":"address"},{"internalType":"uint256","name":"allowance","type":"uint256"},{"internalType":"uint256","name":"needed","type":"uint256"}],"name":"ERC20InsufficientAllowance","type":"error"},{"inputs":[{"internalType":"address","name":"sender","type":"address"},{"internalType":"uint256","name":"balance","type":"uint256"},{"internalType":"uint256","name":"needed","type":"uint256"}],"name":"ERC20InsufficientBalance","type":"error"},{"inputs":[{"internalType":"address","name":"approver","type":"address"}],"name":"ERC20InvalidApprover","type":"error"},{"inputs":[{"internalType":"address","name":"receiver","type":"address"}],"name":"ERC20InvalidReceiver","type":"error"},{"inputs":[{"internalType":"address","name":"sender","type":"address"}],"name":"ERC20InvalidSender","type":"error"},{"inputs":[{"internalType":"address","name":"spender","type":"address"}],"name":"ERC20InvalidSpender","type":"error"},{"inputs":[{"internalType":"address","name":"owner","type":"address"}],"name":"OwnableInvalidOwner","type":"error"},{"inputs":[{"internalType":"address","name":"account","type":"address"}],"name":"OwnableUnauthorizedAccount","type":"error"},{"anonymous":false,"inputs":[{"indexed":true,"internalType":"address","name":"owner","type":"address"},{"indexed":true,"internalType":"address","name":"spender","type":"address"},{"indexed":false,"internalType":"uint256","name":"value","type":"uint256"}],"name":"Approval","type":"event"},{"anonymous":false,"inputs":[{"indexed":true,"internalType":"address","name":"to","type":"address"},{"indexed":false,"internalType":"uint256","name":"amount","type":"uint256"},{"indexed":true,"internalType":"bytes32","name":"transferId","type":"bytes32"}],"name":"BridgeMint","type":"event"},{"anonymous":false,"inputs":[{"indexed":true,"internalType":"address","name":"account","type":"address"},{"indexed":false,"internalType":"uint256","name":"amount","type":"uint256"}],"name":"Deposit","type":"event"},{"anonymous":false,"inputs":[{"indexed":true,"internalType":"address","name":"previousOwner","type":"address"},{"indexed":true,"internalType":"address","name":"newOwner","type":"address"}],"name":"OwnershipTransferred","type":"event"},{"anonymous":false,"inputs":[{"indexed":true,"internalType":"address","name":"from","type":"address"},{"indexed":true,"internalType":"address","name":"to","type":"address"},{"indexed":false,"internalType":"uint256","name":"value","type":"uint256"}],"name":"Transfer","type":"event"},{"anonymous":false,"inputs":[{"indexed":true,"internalType":"address","name":"account","type":"address"},{"indexed":false,"internalType":"uint256","name":"amount","type":"uint256"}],"name":"Withdrawal","type":"event"},{"inputs":[{"internalType":"address","name":"owner","type":"address"},{"internalType":"address","name":"spender","type":"address"}],"name":"allowance","outputs":[{"internalType":"uint256","name":"","type":"uint256"}],"stateMutability":"view","type":"function"},{"inputs":[{"internalType":"address","name":"spender","type":"address"},{"internalType":"uint256","name":"amount","type":"uint256"}],"name":"approve","outputs":[{"internalType":"bool","name":"","type":"bool"}],"stateMutability":"nonpayable","type":"function"},{"inputs":[{"internalType":"address","name":"account","type":"address"}],"name":"balanceOf","outputs":[{"internalType":"uint256","name":"","type":"uint256"}],"stateMutability":"view","type":"function"},{"inputs":[],"name":"bridge","outputs":[{"internalType":"address","name":"","type":"address"}],"stateMutability":"view","type":"function"},{"inputs":[{"internalType":"address","name":"to","type":"address"},{"internalType":"uint256","name":"amount","type":"uint256"},{"internalType":"bytes32","name":"transferId","type":"bytes32"}],"name":"bridgeMint","outputs":[],"stateMutability":"nonpayable","type":"function"},{"inputs":[{"internalType":"bytes32","name":"","type":"bytes32"}],"name":"bridgedAmounts","outputs":[{"internalType":"uint256","name":"","type":"uint256"}],"stateMutability":"view","type":"function"},{"inputs":[{"internalType":"uint256","name":"amount","type":"uint256"}],"name":"burn","outputs":[],"stateMutability":"nonpayable","type":"function"},{"inputs":[],"name":"decimals","outputs":[{"internalType":"uint8","name":"","type":"uint8"}],"stateMutability":"view","type":"function"},{"inputs":[{"internalType":"address","name":"to","type":"address"},{"internalType":"uint256","name":"amount","type":"uint256"}],"name":"emergencyMint","outputs":[],"stateMutability":"nonpayable","type":"function"},{"inputs":[],"name":"name","outputs":[{"internalType":"string","name":"","type":"string"}],"stateMutability":"view","type":"function"},{"inputs":[],"name":"owner","outputs":[{"internalType":"address","name":"","type":"address"}],"stateMutability":"view","type":"function"},{"inputs":[],"name":"renounceOwnership","outputs":[],"stateMutability":"nonpayable","type":"function"},{"inputs":[{"internalType":"address","name":"_bridge","type":"address"}],"name":"setBridge","outputs":[],"stateMutability":"nonpayable","type":"function"},{"inputs":[],"name":"symbol","outputs":[{"internalType":"string","name":"","type":"string"}],"stateMutability":"view","type":"function"},{"inputs":[],"name":"totalSupply","outputs":[{"internalType":"uint256","name":"","type":"uint256"}],"stateMutability":"view","type":"function"},{"inputs":[{"internalType":"address","name":"to","type":"address"},{"internalType":"uint256","name":"amount","type":"uint256"}],"name":"transfer","outputs":[{"internalType":"bool","name":"","type":"bool"}],"stateMutability":"nonpayable","type":"function"},{"inputs":[{"internalType":"address","name":"from","type":"address"},{"internalType":"address","name":"to","type":"address"},{"internalType":"uint256","name":"amount","type":"uint256"}],"name":"transferFrom","outputs":[{"internalType":"bool","name":"","type":"bool"}],"stateMutability":"nonpayable","type":"function"},{"inputs":[{"internalType":"address","name":"newOwner","type":"address"}],"name":"transferOwnership","outputs":[],"stateMutability":"nonpayable","type":"function"}],"evm":{"bytecode":{"linkReferences":{},"object":"60806040523480156200001157600080fd5b50336040518060400160405280600b81526020016a0aee4c2e0e0cac8408aa8960ab1b815250604051806040016040528060048152602001630ae8aa8960e31b8152508160039081620000659190620001af565b506004620000748282620001af565b5050506001600160a01b038116620000a657604051631e4fbdf760e01b81526000600482015260240160405180910390fd5b620000b181620000b8565b506200027b565b600580546001600160a01b038381166001600160a01b0319831681179093556040519116919082907f8be0079c531659141344cd1fd0a4f28419497f9722a3daafe3b4186f6b6457e090600090a35050565b634e487b7160e01b600052604160045260246000fd5b600181811c908216806200013557607f821691505b6020821081036200015657634e487b7160e01b600052602260045260246000fd5b50919050565b601f821115620001aa57600081815260208120601f850160051c81016020861015620001855750805b601f850160051c820191505b81811015620001a65782815560010162000191565b5050505b505050565b81516001600160401b03811115620001cb57620001cb6200010a565b620001e381620001dc845462000120565b846200015c565b602080601f8311600181146200021b5760008415620002025750858301515b600019600386901b1c1916600185901b178555620001a6565b600085815260208120601f198616915b828110156200024c578886015182559484019460019091019084016200022b565b50858210156200026b5787850151600019600388901b60f8161c191681555b5050505050600190811b01905550565b610ce1806200028b6000396000f3fe608060405234801561001057600080fd5b50600436106101165760003560e01c8063715018a6116100a2578063a9059cbb11610071578063a9059cbb14610237578063dd62ed3e1461024a578063e78cea921461025d578063f2fde38b14610270578063f661e6311461028357600080fd5b8063715018a6146101ef5780638da5cb5b146101f75780638dd148021461021c57806395d89b411461022f57600080fd5b80632ee149cd116100e95780632ee149cd14610185578063313ce567146101a557806342966c68146101b457806343785dc9146101c957806370a08231146101dc57600080fd5b806306fdde031461011b578063095ea7b31461013957806318160ddd1461015c57806323b872dd14610172575b600080fd5b610123610296565b6040516101309190610a62565b60405180910390f35b61014c610147366004610acc565b610328565b6040519015158152602001610130565b61016461033d565b604051908152602001610130565b61014c610180366004610af6565b61034d565b610164610193366004610b32565b60076020526000908152604090205481565b60405160128152602001610130565b6101c76101c2366004610b32565b610362565b005b6101c76101d7366004610acc565b610425565b6101646101ea366004610b4b565b610481565b6101c761049f565b6005546001600160a01b03165b6040516001600160a01b039091168152602001610130565b6101c761022a366004610b4b565b6104b3565b6101236104dd565b61014c610245366004610acc565b6104ec565b610164610258366004610b66565b6104f8565b600654610204906001600160a01b031681565b6101c761027e366004610b4b565b610525565b6101c7610291366004610b99565b610563565b6060600380546102a590610bcc565b80601f01602080910402602001604051908101604052809291908181526020018280546102d190610bcc565b801561031e5780601f106102f35761010080835404028352916020019161031e565b820191906000526020600020905b81548152906001019060200180831161030157829003601f168201915b5050505050905090565b60006103348383610667565b90505b92915050565b600061034860025490565b905090565b600061035a84848461067f565b949350505050565b6000811161038b5760405162461bcd60e51b815260040161038290610c06565b60405180910390fd5b8061039533610481565b10156103e35760405162461bcd60e51b815260206004820152601a60248201527f574554483a20496e73756666696369656e742062616c616e63650000000000006044820152606401610382565b6103ed33826106a3565b60405181815233907f7fcf532c15f0a6db0bd6d0e038bea71d30d808c7d98cb3bf7268a95bf5081b659060200160405180910390a250565b61042d6106d9565b6001600160a01b0382166104535760405162461bcd60e51b815260040161038290610c49565b600081116104735760405162461bcd60e51b815260040161038290610c06565b61047d8282610706565b5050565b6001600160a01b038116600090815260208190526040812054610337565b6104a76106d9565b6104b1600061073c565b565b6104bb6106d9565b600680546001600160a01b0319166001600160a01b0392909216919091179055565b6060600480546102a590610bcc565b6000610334838361078e565b6001600160a01b038083166000908152600160209081526040808320938516835292905290812054610334565b61052d6106d9565b6001600160a01b03811661055757604051631e4fbdf760e01b815260006004820152602401610382565b6105608161073c565b50565b6006546001600160a01b031633146105bd5760405162461bcd60e51b815260206004820152601a60248201527f574554483a204f6e6c79206272696467652063616e206d696e740000000000006044820152606401610382565b6001600160a01b0383166105e35760405162461bcd60e51b815260040161038290610c49565b600082116106035760405162461bcd60e51b815260040161038290610c06565b600081815260076020526040902082905561061e8383610706565b80836001600160a01b03167f096d591342eea46377f5d86fed8a91ab1e9be20a7c3f5d698cecc1d4f698680a8460405161065a91815260200190565b60405180910390a3505050565b60003361067581858561079c565b5060019392505050565b60003361068d8582856107ae565b610698858585610815565b506001949350505050565b6001600160a01b0382166106cd57604051634b637e8f60e11b815260006004820152602401610382565b61047d82600083610870565b6005546001600160a01b031633146104b15760405163118cdaa760e01b8152336004820152602401610382565b6001600160a01b0382166107305760405163ec442f0560e01b815260006004820152602401610382565b61047d60008383610870565b600580546001600160a01b038381166001600160a01b0319831681179093556040519116919082907f8be0079c531659141344cd1fd0a4f28419497f9722a3daafe3b4186f6b6457e090600090a35050565b600033610675818585610815565b6107a9838383600161098d565b505050565b60006107ba84846104f8565b905060001981101561080f578181101561080057604051637dc7a0d960e11b81526001600160a01b03841660048201526024810182905260448101839052606401610382565b61080f8484848403600061098d565b50505050565b6001600160a01b03831661083f57604051634b637e8f60e11b815260006004820152602401610382565b6001600160a01b0382166108695760405163ec442f0560e01b815260006004820152602401610382565b6107a98383835b6001600160a01b03831661089b5780600260008282546108909190610c8a565b9091555061090d9050565b6001600160a01b038316600090815260208190526040902054818110156108ee5760405163391434e360e21b81526001600160a01b03851660048201526024810182905260448101839052606401610382565b6001600160a01b03841660009081526020819052604090209082900390555b6001600160a01b03821661092957600280548290039055610948565b6001600160a01b03821660009081526020819052604090208054820190555b816001600160a01b0316836001600160a01b03167fddf252ad1be2c89b69c2b068fc378daa952ba7f163c4a11628f55a4df523b3ef8360405161065a91815260200190565b6001600160a01b0384166109b75760405163e602df0560e01b815260006004820152602401610382565b6001600160a01b0383166109e157604051634a1406b160e11b815260006004820152602401610382565b6001600160a01b038085166000908152600160209081526040808320938716835292905220829055801561080f57826001600160a01b0316846001600160a01b03167f8c5be1e5ebec7d5bd14f71427d1e84f3dd0314c0f7b2291e5b200ac8c7c3b92584604051610a5491815260200190565b60405180910390a350505050565b600060208083528351808285015260005b81811015610a8f57858101830151858201604001528201610a73565b506000604082860101526040601f19601f8301168501019250505092915050565b80356001600160a01b0381168114610ac757600080fd5b919050565b60008060408385031215610adf57600080fd5b610ae883610ab0565b946020939093013593505050565b600080600060608486031215610b0b57600080fd5b610b1484610ab0565b9250610b2260208501610ab0565b9150604084013590509250925092565b600060208284031215610b4457600080fd5b5035919050565b600060208284031215610b5d57600080fd5b61033482610ab0565b60008060408385031215610b7957600080fd5b610b8283610ab0565b9150610b9060208401610ab0565b90509250929050565b600080600060608486031215610bae57600080fd5b610bb784610ab0565b95602085013595506040909401359392505050565b600181811c90821680610be057607f821691505b602082108103610c0057634e487b7160e01b600052602260045260246000fd5b50919050565b60208082526023908201527f574554483a20416d6f756e74206d75737420626520677265617465722074686160408201526206e20360ec1b606082015260800190565b60208082526021908201527f574554483a2043616e6e6f74206d696e7420746f207a65726f206164647265736040820152607360f81b606082015260800190565b8082018082111561033757634e487b7160e01b600052601160045260246000fdfea26469706673582212206fa35dfbddc52c23aecf5ab7f3bbfeb18ba660eb51839c34edb61bb075d11fe764736f6c63430008140033","opcodes":"PUSH1 0x80 PUSH1 0x40 MSTORE CALLVALUE DUP1 ISZERO PUSH3 0x11 JUMPI PUSH1 0x0 DUP1 REVERT JUMPDEST POP CALLER PUSH1 0x40 MLOAD DUP1 PUSH1 0x40 ADD PUSH1 0x40 MSTORE DUP1 PUSH1 0xB DUP2 MSTORE PUSH1 0x20 ADD PUSH11 0xAEE4C2E0E0CAC8408AA89 PUSH1 0xAB SHL DUP2 MSTORE POP PUSH1 0x40 MLOAD DUP1 PUSH1 0x40 ADD PUSH1 0x40 MSTORE DUP1 PUSH1 0x4 DUP2 MSTORE PUSH1 0x20 ADD PUSH4 0xAE8AA89 PUSH1 0xE3 SHL DUP2 MSTORE POP DUP2 PUSH1 0x3 SWAP1 DUP2 PUSH3 0x65 SWAP2 SWAP1 PUSH3 0x1AF JUMP JUMPDEST POP PUSH1 0x4 PUSH3 0x74 DUP3 DUP3 PUSH3 0x1AF JUMP JUMPDEST POP POP POP PUSH1 0x1 PUSH1 0x1 PUSH1 0xA0 SHL SUB DUP2 AND PUSH3 0xA6 JUMPI PUSH1 0x40 MLOAD PUSH4 0x1E4FBDF7 PUSH1 0xE0 SHL DUP2 MSTORE PUSH1 0x0 PUSH1 0x4 DUP3 ADD MSTORE PUSH1 0x24 ADD PUSH1 0x40 MLOAD DUP1 SWAP2 SUB SWAP1 REVERT JUMPDEST PUSH3 0xB1 DUP2 PUSH3 0xB8 JUMP JUMPDEST POP PUSH3 0x27B JUMP JUMPDEST PUSH1 0x5 DUP1 SLOAD PUSH1 0x1 PUSH1 0x1 PUSH1 0xA0 SHL SUB DUP4 DUP2 AND PUSH1 0x1 PUSH1 0x1 PUSH1 0xA0 SHL SUB NOT DUP4 AND DUP2 OR SWAP1 SWAP4 SSTORE PUSH1 0x40 MLOAD SWAP2 AND SWAP2 SWAP1 DUP3 SWAP1 PUSH32 0x8BE0079C531659141344CD1FD0A4F28419497F9722A3DAAFE3B4186F6B6457E0 SWAP1 PUSH1 0x0 SWAP1 LOG3 POP POP JUMP JUMPDEST PUSH4 0x4E487B71 PUSH1 0xE0 SHL PUSH1 0x0 MSTORE PUSH1 0x41 PUSH1 0x4 MSTORE PUSH1 0x24 PUSH1 0x0 REVERT JUMPDEST PUSH1 0x1 DUP2 DUP2 SHR SWAP1 DUP3 AND DUP1 PUSH3 0x135 JUMPI PUSH1 0x7F DUP3 AND SWAP2 POP JUMPDEST PUSH1 0x20 DUP3 LT DUP2 SUB PUSH3 0x156 JUMPI PUSH4 0x4E487B71 PUSH1 0xE0 SHL PUSH1 0x0 MSTORE PUSH1 0x22 PUSH1 0x4 MSTORE PUSH1 0x24 PUSH1 0x0 REVERT JUMPDEST POP SWAP2 SWAP1 POP JUMP JUMPDEST PUSH1 0x1F DUP3 GT ISZERO PUSH3 0x1AA JUMPI PUSH1 0x0 DUP2 DUP2 MSTORE PUSH1 0x20 DUP2 KECCAK256 PUSH1 0x1F DUP6 ADD PUSH1 0x5 SHR DUP2 ADD PUSH1 0x20 DUP7 LT ISZERO PUSH3 0x185 JUMPI POP DUP1 JUMPDEST PUSH1 0x1F DUP6 ADD PUSH1 0x5 SHR DUP3 ADD SWAP2 POP JUMPDEST DUP2 DUP2 LT ISZERO PUSH3 0x1A6 JUMPI DUP3 DUP2 SSTORE PUSH1 0x1 ADD PUSH3 0x191 JUMP JUMPDEST POP POP POP JUMPDEST POP POP POP JUMP JUMPDEST DUP2 MLOAD PUSH1 0x1 PUSH1 0x1 PUSH1 0x40 SHL SUB DUP2 GT ISZERO PUSH3 0x1CB JUMPI PUSH3 0x1CB PUSH3 0x10A JUMP JUMPDEST PUSH3 0x1E3 DUP2 PUSH3 0x1DC DUP5 SLOAD PUSH3 0x120 JUMP JUMPDEST DUP5 PUSH3 0x15C JUMP JUMPDEST PUSH1 0x20 DUP1 PUSH1 0x1F DUP4 GT PUSH1 0x1 DUP2 EQ PUSH3 0x21B JUMPI PUSH1 0x0 DUP5 ISZERO PUSH3 0x202 JUMPI POP DUP6 DUP4 ADD MLOAD JUMPDEST PUSH1 0x0 NOT PUSH1 0x3 DUP7 SWAP1 SHL SHR NOT AND PUSH1 0x1 DUP6 SWAP1 SHL OR DUP6 SSTORE PUSH3 0x1A6 JUMP JUMPDEST PUSH1 0x0 DUP6 DUP2 MSTORE PUSH1 0x20 DUP2 KECCAK256 PUSH1 0x1F NOT DUP7 AND SWAP2 JUMPDEST DUP3 DUP2 LT ISZERO PUSH3 0x24C JUMPI DUP9 DUP7 ADD MLOAD DUP3 SSTORE SWAP5 DUP5 ADD SWAP5 PUSH1 0x1 SWAP1 SWAP2 ADD SWAP1 DUP5 ADD PUSH3 0x22B JUMP JUMPDEST POP DUP6 DUP3 LT ISZERO PUSH3 0x26B JUMPI DUP8 DUP6 ADD MLOAD PUSH1 0x0 NOT PUSH1 0x3 DUP9 SWAP1 SHL PUSH1 0xF8 AND SHR NOT AND DUP2 SSTORE JUMPDEST POP POP POP POP POP PUSH1 0x1 SWAP1 DUP2 SHL ADD SWAP1 SSTORE POP JUMP JUMPDEST PUSH2 0xCE1 DUP1 PUSH3 0x28B PUSH1 0x0 CODECOPY PUSH1 0x0 RETURN INVALID PUSH1 0x80 PUSH1 0x40 MSTORE CALLVALUE DUP1 ISZERO PUSH2 0x10 JUMPI PUSH1 0x0 DUP1 REVERT JUMPDEST POP PUSH1 0x4 CALLDATASIZE LT PUSH2 0x116 JUMPI PUSH1 0x0 CALLDATALOAD PUSH1 0xE0 SHR DUP1 PUSH4 0x715018A6 GT PUSH2 0xA2 JUMPI DUP1 PUSH4 0xA9059CBB GT PUSH2 0x71 JUMPI DUP1 PUSH4 0xA9059CBB EQ PUSH2 0x237 JUMPI DUP1 PUSH4 0xDD62ED3E EQ PUSH2 0x24A JUMPI DUP1 PUSH4 0xE78CEA92 EQ PUSH2 0x25D JUMPI DUP1 PUSH4 0xF2FDE38B EQ PUSH2 0x270 JUMPI DUP1 PUSH4 0xF661E631 EQ PUSH2 0x283 JUMPI PUSH1 0x0 DUP1 REVERT JUMPDEST DUP1 PUSH4 0x715018A6 EQ PUSH2 0x1EF JUMPI DUP1 PUSH4 0x8DA5CB5B EQ PUSH2 0x1F7 JUMPI DUP1 PUSH4 0x8DD14802 EQ PUSH2 0x21C JUMPI DUP1 PUSH4 0x95D89B41 EQ PUSH2 0x22F JUMPI PUSH1 0x0 DUP1 REVERT JUMPDEST DUP1 PUSH4 0x2EE149CD GT PUSH2 0xE9 JUMPI DUP1 PUSH4 0x2EE149CD EQ PUSH2 0x185 JUMPI DUP1 PUSH4 0x313CE567 EQ PUSH2 0x1A5 JUMPI DUP1 PUSH4 0x42966C68 EQ PUSH2 0x1B4 JUMPI DUP1 PUSH4 0x43785DC9 EQ PUSH2 0x1C9 JUMPI DUP1 PUSH4 0x70A08231 EQ PUSH2 0x1DC JUMPI PUSH1 0x0 DUP1 REVERT JUMPDEST DUP1 PUSH4 0x6FDDE03 EQ PUSH2 0x11B JUMPI DUP1 PUSH4 0x95EA7B3 EQ PUSH2 0x139 JUMPI DUP1 PUSH4 0x18160DDD EQ PUSH2 0x15C JUMPI DUP1 PUSH4 0x23B872DD EQ PUSH2 0x172 JUMPI JUMPDEST PUSH1 0x0 DUP1 REVERT JUMPDEST PUSH2 0x123 PUSH2 0x296 JUMP JUMPDEST PUSH1 0x40 MLOAD PUSH2 0x130 SWAP2 SWAP1 PUSH2 0xA62 JUMP JUMPDEST PUSH1 0x40 MLOAD DUP1 SWAP2 SUB SWAP1 RETURN JUMPDEST PUSH2 0x14C PUSH2 0x147 CALLDATASIZE PUSH1 0x4 PUSH2 0xACC JUMP JUMPDEST PUSH2 0x328 JUMP JUMPDEST PUSH1 0x40 MLOAD SWAP1 ISZERO ISZERO DUP2 MSTORE PUSH1 0x20 ADD PUSH2 0x130 JUMP JUMPDEST PUSH2 0x164 PUSH2 0x33D JUMP JUMPDEST PUSH1 0x40 MLOAD SWAP1 DUP2 MSTORE PUSH1 0x20 ADD PUSH2 0x130 JUMP JUMPDEST PUSH2 0x14C PUSH2 0x180 CALLDATASIZE PUSH1 0x4 PUSH2 0xAF6 JUMP JUMPDEST PUSH2 0x34D JUMP JUMPDEST PUSH2 0x164 PUSH2 0x193 CALLDATASIZE PUSH1 0x4 PUSH2 0xB32 JUMP JUMPDEST PUSH1 0x7 PUSH1 0x20 MSTORE PUSH1 0x0 SWAP1 DUP2 MSTORE PUSH1 0x40 SWAP1 KECCAK256 SLOAD DUP2 JUMP JUMPDEST PUSH1 0x40 MLOAD PUSH1 0x12 DUP2 MSTORE PUSH1 0x20 ADD PUSH2 0x130 JUMP JUMPDEST PUSH2 0x1C7 PUSH2 0x1C2 CALLDATASIZE PUSH1 0x4 PUSH2 0xB32 JUMP JUMPDEST PUSH2 0x362 JUMP JUMPDEST STOP JUMPDEST PUSH2 0x1C7 PUSH2 0x1D7 CALLDATASIZE PUSH1 0x4 PUSH2 0xACC JUMP JUMPDEST PUSH2 0x425 JUMP JUMPDEST PUSH2 0x164 PUSH2 0x1EA CALLDATASIZE PUSH1 0x4 PUSH2 0xB4B JUMP JUMPDEST PUSH2 0x481 JUMP JUMPDEST PUSH2 0x1C7 PUSH2 0x49F JUMP JUMPDEST PUSH1 0x5 SLOAD PUSH1 0x1 PUSH1 0x1 PUSH1 0xA0 SHL SUB AND JUMPDEST PUSH1 0x40 MLOAD PUSH1 0x1 PUSH1 0x1 PUSH1 0xA0 SHL SUB SWAP1 SWAP2 AND DUP2 MSTORE PUSH1 0x20 ADD PUSH2 0x130 JUMP JUMPDEST PUSH2 0x1C7 PUSH2 0x22A CALLDATASIZE PUSH1 0x4 PUSH2 0xB4B JUMP JUMPDEST PUSH2 0x4B3 JUMP JUMPDEST PUSH2 0x123 PUSH2 0x4DD JUMP JUMPDEST PUSH2 0x14C PUSH2 0x245 CALLDATASIZE PUSH1 0x4 PUSH2 0xACC JUMP JUMPDEST PUSH2 0x4EC JUMP JUMPDEST PUSH2 0x164 PUSH2 0x258 CALLDATASIZE PUSH1 0x4 PUSH2 0xB66 JUMP JUMPDEST PUSH2 0x4F8 JUMP JUMPDEST PUSH1 0x6 SLOAD PUSH2 0x204 SWAP1 PUSH1 0x1 PUSH1 0x1 PUSH1 0xA0 SHL SUB AND DUP2 JUMP JUMPDEST PUSH2 0x1C7 PUSH2 0x27E CALLDATASIZE PUSH1 0x4 PUSH2 0xB4B JUMP JUMPDEST PUSH2 0x525 JUMP JUMPDEST PUSH2 0x1C7 PUSH2 0x291 CALLDATASIZE PUSH1 0x4 PUSH2 0xB99 JUMP JUMPDEST PUSH2 0x563 JUMP JUMPDEST PUSH1 0x60 PUSH1 0x3 DUP1 SLOAD PUSH2 0x2A5 SWAP1 PUSH2 0xBCC JUMP JUMPDEST DUP1 PUSH1 0x1F ADD PUSH1 0x20 DUP1 SWAP2 DIV MUL PUSH1 0x20 ADD PUSH1 0x40 MLOAD SWAP1 DUP2 ADD PUSH1 0x40 MSTORE DUP1 SWAP3 SWAP2 SWAP1 DUP2 DUP2 MSTORE PUSH1 0x20 ADD DUP3 DUP1 SLOAD PUSH2 0x2D1 SWAP1 PUSH2 0xBCC JUMP JUMPDEST DUP1 ISZERO PUSH2 0x31E JUMPI DUP1 PUSH1 0x1F LT PUSH2 0x2F3 JUMPI PUSH2 0x100 DUP1 DUP4 SLOAD DIV MUL DUP4 MSTORE SWAP2 PUSH1 0x20 ADD SWAP2 PUSH2 0x31E JUMP JUMPDEST DUP3 ADD SWAP2 SWAP1 PUSH1 0x0 MSTORE PUSH1 0x20 PUSH1 0x0 KECCAK256 SWAP1 JUMPDEST DUP2 SLOAD DUP2 MSTORE SWAP1 PUSH1 0x1 ADD SWAP1 PUSH1 0x20 ADD DUP1 DUP4 GT PUSH2 0x301 JUMPI DUP3 SWAP1 SUB PUSH1 0x1F AND DUP3 ADD SWAP2 JUMPDEST POP POP POP POP POP SWAP1 POP SWAP1 JUMP JUMPDEST PUSH1 0x0 PUSH2 0x334 DUP4 DUP4 PUSH2 0x667 JUMP JUMPDEST SWAP1 POP JUMPDEST SWAP3 SWAP2 POP POP JUMP JUMPDEST PUSH1 0x0 PUSH2 0x348 PUSH1 0x2 SLOAD SWAP1 JUMP JUMPDEST SWAP1 POP SWAP1 JUMP JUMPDEST PUSH1 0x0 PUSH2 0x35A DUP5 DUP5 DUP5 PUSH2 0x67F JUMP JUMPDEST SWAP5 SWAP4 POP POP POP POP JUMP JUMPDEST PUSH1 0x0 DUP2 GT PUSH2 0x38B JUMPI PUSH1 0x40 MLOAD PUSH3 0x461BCD PUSH1 0xE5 SHL DUP2 MSTORE PUSH1 0x4 ADD PUSH2 0x382 SWAP1 PUSH2 0xC06 JUMP JUMPDEST PUSH1 0x40 MLOAD DUP1 SWAP2 SUB SWAP1 REVERT JUMPDEST DUP1 PUSH2 0x395 CALLER PUSH2 0x481 JUMP JUMPDEST LT ISZERO PUSH2 0x3E3 JUMPI PUSH1 0x40 MLOAD PUSH3 0x461BCD PUSH1 0xE5 SHL DUP2 MSTORE PUSH1 0x20 PUSH1 0x4 DUP3 ADD MSTORE PUSH1 0x1A PUSH1 0x24 DUP3 ADD MSTORE PUSH32 0x574554483A20496E73756666696369656E742062616C616E6365000000000000 PUSH1 0x44 DUP3 ADD MSTORE PUSH1 0x64 ADD PUSH2 0x382 JUMP JUMPDEST PUSH2 0x3ED CALLER DUP3 PUSH2 0x6A3 JUMP JUMPDEST PUSH1 0x40 MLOAD DUP2 DUP2 MSTORE CALLER SWAP1 PUSH32 0x7FCF532C15F0A6DB0BD6D0E038BEA71D30D808C7D98CB3BF7268A95BF5081B65 SWAP1 PUSH1 0x20 ADD PUSH1 0x40 MLOAD DUP1 SWAP2 SUB SWAP1 LOG2 POP JUMP JUMPDEST PUSH2 0x42D PUSH2 0x6D9 JUMP JUMPDEST PUSH1 0x1 PUSH1 0x1 PUSH1 0xA0 SHL SUB DUP3 AND PUSH2 0x453 JUMPI PUSH1 0x40 MLOAD PUSH3 0x461BCD PUSH1 0xE5 SHL DUP2 MSTORE PUSH1 0x4 ADD PUSH2 0x382 SWAP1 PUSH2 0xC49 JUMP JUMPDEST PUSH1 0x0 DUP2 GT PUSH2 0x473 JUMPI PUSH1 0x40 MLOAD PUSH3 0x461BCD PUSH1 0xE5 SHL DUP2 MSTORE PUSH1 0x4 ADD PUSH2 0x382 SWAP1 PUSH2 0xC06 JUMP JUMPDEST PUSH2 0x47D DUP3 DUP3 PUSH2 0x706 JUMP JUMPDEST POP POP JUMP JUMPDEST PUSH1 0x1 PUSH1 0x1 PUSH1 0xA0 SHL SUB DUP2 AND PUSH1 0x0 SWAP1 DUP2 MSTORE PUSH1 0x20 DUP2 SWAP1 MSTORE PUSH1 0x40 DUP2 KECCAK256 SLOAD PUSH2 0x337 JUMP JUMPDEST PUSH2 0x4A7 PUSH2 0x6D9 JUMP JUMPDEST PUSH2 0x4B1 PUSH1 0x0 PUSH2 0x73C JUMP JUMPDEST JUMP JUMPDEST PUSH2 0x4BB PUSH2 0x6D9 JUMP JUMPDEST PUSH1 0x6 DUP1 SLOAD PUSH1 0x1 PUSH1 0x1 PUSH1 0xA0 SHL SUB NOT AND PUSH1 0x1 PUSH1 0x1 PUSH1 0xA0 SHL SUB SWAP3 SWAP1 SWAP3 AND SWAP2 SWAP1 SWAP2 OR SWAP1 SSTORE JUMP JUMPDEST PUSH1 0x60 PUSH1 0x4 DUP1 SLOAD PUSH2 0x2A5 SWAP1 PUSH2 0xBCC JUMP JUMPDEST PUSH1 0x0 PUSH2 0x334 DUP4 DUP4 PUSH2 0x78E JUMP JUMPDEST PUSH1 0x1 PUSH1 0x1 PUSH1 0xA0 SHL SUB DUP1 DUP4 AND PUSH1 0x0 SWAP1 DUP2 MSTORE PUSH1 0x1 PUSH1 0x20 SWAP1 DUP2 MSTORE PUSH1 0x40 DUP1 DUP4 KECCAK256 SWAP4 DUP6 AND DUP4 MSTORE SWAP3 SWAP1 MSTORE SWAP1 DUP2 KECCAK256 SLOAD PUSH2 0x334 JUMP JUMPDEST PUSH2 0x52D PUSH2 0x6D9 JUMP JUMPDEST PUSH1 0x1 PUSH1 0x1 PUSH1 0xA0 SHL SUB DUP2 AND PUSH2 0x557 JUMPI PUSH1 0x40 MLOAD PUSH4 0x1E4FBDF7 PUSH1 0xE0 SHL DUP2 MSTORE PUSH1 0x0 PUSH1 0x4 DUP3 ADD MSTORE PUSH1 0x24 ADD PUSH2 0x382 JUMP JUMPDEST PUSH2 0x560 DUP2 PUSH2 0x73C JUMP JUMPDEST POP JUMP JUMPDEST PUSH1 0x6 SLOAD PUSH1 0x1 PUSH1 0x1 PUSH1 0xA0 SHL SUB AND CALLER EQ PUSH2 0x5BD JUMPI PUSH1 0x40 MLOAD PUSH3 0x461BCD PUSH1 0xE5 SHL DUP2 MSTORE PUSH1 0x20 PUSH1 0x4 DUP3 ADD MSTORE PUSH1 0x1A PUSH1 0x24 DUP3 ADD MSTORE PUSH32 0x574554483A204F6E6C79206272696467652063616E206D696E74000000000000 PUSH1 0x44 DUP3 ADD MSTORE PUSH1 0x64 ADD PUSH2 0x382 JUMP JUMPDEST PUSH1 0x1 PUSH1 0x1 PUSH1 0xA0 SHL SUB DUP4 AND PUSH2 0x5E3 JUMPI PUSH1 0x40 MLOAD PUSH3 0x461BCD PUSH1 0xE5 SHL DUP2 MSTORE PUSH1 0x4 ADD PUSH2 0x382 SWAP1 PUSH2 0xC49 JUMP JUMPDEST PUSH1 0x0 DUP3 GT PUSH2 0x603 JUMPI PUSH1 0x40 MLOAD PUSH3 0x461BCD PUSH1 0xE5 SHL DUP2 MSTORE PUSH1 0x4 ADD PUSH2 0x382 SWAP1 PUSH2 0xC06 JUMP JUMPDEST PUSH1 0x0 DUP2 DUP2 MSTORE PUSH1 0x7 PUSH1 0x20 MSTORE PUSH1 0x40 SWAP1 KECCAK256 DUP3 SWAP1 SSTORE PUSH2 0x61E DUP4 DUP4 PUSH2 0x706 JUMP JUMPDEST DUP1 DUP4 PUSH1 0x1 PUSH1 0x1 PUSH1 0xA0 SHL SUB AND PUSH32 0x96D591342EEA46377F5D86FED8A91AB1E9BE20A7C3F5D698CECC1D4F698680A DUP5 PUSH1 0x40 MLOAD PUSH2 0x65A SWAP2 DUP2 MSTORE PUSH1 0x20 ADD SWAP1 JUMP JUMPDEST PUSH1 0x40 MLOAD DUP1 SWAP2 SUB SWAP1 LOG3 POP POP POP JUMP JUMPDEST PUSH1 0x0 CALLER PUSH2 0x675 DUP2 DUP6 DUP6 PUSH2 0x79C JUMP JUMPDEST POP PUSH1 0x1 SWAP4 SWAP3 POP POP POP JUMP JUMPDEST PUSH1 0x0 CALLER PUSH2 0x68D DUP6 DUP3 DUP6 PUSH2 0x7AE JUMP JUMPDEST PUSH2 0x698 DUP6 DUP6 DUP6 PUSH2 0x815 JUMP JUMPDEST POP PUSH1 0x1 SWAP5 SWAP4 POP POP POP POP JUMP JUMPDEST PUSH1 0x1 PUSH1 0x1 PUSH1 0xA0 SHL SUB DUP3 AND PUSH2 0x6CD JUMPI PUSH1 0x40 MLOAD PUSH4 0x4B637E8F PUSH1 0xE1 SHL DUP2 MSTORE PUSH1 0x0 PUSH1 0x4 DUP3 ADD MSTORE PUSH1 0x24 ADD PUSH2 0x382 JUMP JUMPDEST PUSH2 0x47D DUP3 PUSH1 0x0 DUP4 PUSH2 0x870 JUMP JUMPDEST PUSH1 0x5 SLOAD PUSH1 0x1 PUSH1 0x1 PUSH1 0xA0 SHL SUB AND CALLER EQ PUSH2 0x4B1 JUMPI PUSH1 0x40 MLOAD PUSH4 0x118CDAA7 PUSH1 0xE0 SHL DUP2 MSTORE CALLER PUSH1 0x4 DUP3 ADD MSTORE PUSH1 0x24 ADD PUSH2 0x382 JUMP JUMPDEST PUSH1 0x1 PUSH1 0x1 PUSH1 0xA0 SHL SUB DUP3 AND PUSH2 0x730 JUMPI PUSH1 0x40 MLOAD PUSH4 0xEC442F05 PUSH1 0xE0 SHL DUP2 MSTORE PUSH1 0x0 PUSH1 0x4 DUP3 ADD MSTORE PUSH1 0x24 ADD PUSH2 0x382 JUMP JUMPDEST PUSH2 0x47D PUSH1 0x0 DUP4 DUP4 PUSH2 0x870 JUMP JUMPDEST PUSH1 0x5 DUP1 SLOAD PUSH1 0x1 PUSH1 0x1 PUSH1 0xA0 SHL SUB DUP4 DUP2 AND PUSH1 0x1 PUSH1 0x1 PUSH1 0xA0 SHL SUB NOT DUP4 AND DUP2 OR SWAP1 SWAP4 SSTORE PUSH1 0x40 MLOAD SWAP2 AND SWAP2 SWAP1 DUP3 SWAP1 PUSH32 0x8BE0079C531659141344CD1FD0A4F28419497F9722A3DAAFE3B4186F6B6457E0 SWAP1 PUSH1 0x0 SWAP1 LOG3 POP POP JUMP JUMPDEST PUSH1 0x0 CALLER PUSH2 0x675 DUP2 DUP6 DUP6 PUSH2 0x815 JUMP JUMPDEST PUSH2 0x7A9 DUP4 DUP4 DUP4 PUSH1 0x1 PUSH2 0x98D JUMP JUMPDEST POP POP POP JUMP JUMPDEST PUSH1 0x0 PUSH2 0x7BA DUP5 DUP5 PUSH2 0x4F8 JUMP JUMPDEST SWAP1 POP PUSH1 0x0 NOT DUP2 LT ISZERO PUSH2 0x80F JUMPI DUP2 DUP2 LT ISZERO PUSH2 0x800 JUMPI PUSH1 0x40 MLOAD PUSH4 0x7DC7A0D9 PUSH1 0xE1 SHL DUP2 MSTORE PUSH1 0x1 PUSH1 0x1 PUSH1 0xA0 SHL SUB DUP5 AND PUSH1 0x4 DUP3 ADD MSTORE PUSH1 0x24 DUP2 ADD DUP3 SWAP1 MSTORE PUSH1 0x44 DUP2 ADD DUP4 SWAP1 MSTORE PUSH1 0x64 ADD PUSH2 0x382 JUMP JUMPDEST PUSH2 0x80F DUP5 DUP5 DUP5 DUP5 SUB PUSH1 0x0 PUSH2 0x98D JUMP JUMPDEST POP POP POP POP JUMP JUMPDEST PUSH1 0x1 PUSH1 0x1 PUSH1 0xA0 SHL SUB DUP4 AND PUSH2 0x83F JUMPI PUSH1 0x40 MLOAD PUSH4 0x4B637E8F PUSH1 0xE1 SHL DUP2 MSTORE PUSH1 0x0 PUSH1 0x4 DUP3 ADD MSTORE PUSH1 0x24 ADD PUSH2 0x382 JUMP JUMPDEST PUSH1 0x1 PUSH1 0x1 PUSH1 0xA0 SHL SUB DUP3 AND PUSH2 0x869 JUMPI PUSH1 0x40 MLOAD PUSH4 0xEC442F05 PUSH1 0xE0 SHL DUP2 MSTORE PUSH1 0x0 PUSH1 0x4 DUP3 ADD MSTORE PUSH1 0x24 ADD PUSH2 0x382 JUMP JUMPDEST PUSH2 0x7A9 DUP4 DUP4 DUP4 JUMPDEST PUSH1 0x1 PUSH1 0x1 PUSH1 0xA0 SHL SUB DUP4 AND PUSH2 0x89B JUMPI DUP1 PUSH1 0x2 PUSH1 0x0 DUP3 DUP3 SLOAD PUSH2 0x890 SWAP2 SWAP1 PUSH2 0xC8A JUMP JUMPDEST SWAP1 SWAP2 SSTORE POP PUSH2 0x90D SWAP1 POP JUMP JUMPDEST PUSH1 0x1 PUSH1 0x1 PUSH1 0xA0 SHL SUB DUP4 AND PUSH1 0x0 SWAP1 DUP2 MSTORE PUSH1 0x20 DUP2 SWAP1 MSTORE PUSH1 0x40 SWAP1 KECCAK256 SLOAD DUP2 DUP2 LT ISZERO PUSH2 0x8EE JUMPI PUSH1 0x40 MLOAD PUSH4 0x391434E3 PUSH1 0xE2 SHL DUP2 MSTORE PUSH1 0x1 PUSH1 0x1 PUSH1 0xA0 SHL SUB DUP6 AND PUSH1 0x4 DUP3 ADD MSTORE PUSH1 0x24 DUP2 ADD DUP3 SWAP1 MSTORE PUSH1 0x44 DUP2 ADD DUP4 SWAP1 MSTORE PUSH1 0x64 ADD PUSH2 0x382 JUMP JUMPDEST PUSH1 0x1 PUSH1 0x1 PUSH1 0xA0 SHL SUB DUP5 AND PUSH1 0x0 SWAP1 DUP2 MSTORE PUSH1 0x20 DUP2 SWAP1 MSTORE PUSH1 0x40 SWAP1 KECCAK256 SWAP1 DUP3 SWAP1 SUB SWAP1 SSTORE JUMPDEST PUSH1 0x1 PUSH1 0x1 PUSH1 0xA0 SHL SUB DUP3 AND PUSH2 0x929 JUMPI PUSH1 0x2 DUP1 SLOAD DUP3 SWAP1 SUB SWAP1 SSTORE PUSH2 0x948 JUMP JUMPDEST PUSH1 0x1 PUSH1 0x1 PUSH1 0xA0 SHL SUB DUP3 AND PUSH1 0x0 SWAP1 DUP2 MSTORE PUSH1 0x20 DUP2 SWAP1 MSTORE PUSH1 0x40 SWAP1 KECCAK256 DUP1 SLOAD DUP3 ADD SWAP1 SSTORE JUMPDEST DUP2 PUSH1 0x1 PUSH1 0x1 PUSH1 0xA0 SHL SUB AND DUP4 PUSH1 0x1 PUSH1 0x1 PUSH1 0xA0 SHL SUB AND PUSH32 0xDDF252AD1BE2C89B69C2B068FC378DAA952BA7F163C4A11628F55A4DF523B3EF DUP4 PUSH1 0x40 MLOAD PUSH2 0x65A SWAP2 DUP2 MSTORE PUSH1 0x20 ADD SWAP1 JUMP JUMPDEST PUSH1 0x1 PUSH1 0x1 PUSH1 0xA0 SHL SUB DUP5 AND PUSH2 0x9B7 JUMPI PUSH1 0x40 MLOAD PUSH4 0xE602DF05 PUSH1 0xE0 SHL DUP2 MSTORE PUSH1 0x0 PUSH1 0x4 DUP3 ADD MSTORE PUSH1 0x24 ADD PUSH2 0x382 JUMP JUMPDEST PUSH1 0x1 PUSH1 0x1 PUSH1 0xA0 SHL SUB DUP4 AND PUSH2 0x9E1 JUMPI PUSH1 0x40 MLOAD PUSH4 0x4A1406B1 PUSH1 0xE1 SHL DUP2 MSTORE PUSH1 0x0 PUSH1 0x4 DUP3 ADD MSTORE PUSH1 0x24 ADD PUSH2 0x382 JUMP JUMPDEST PUSH1 0x1 PUSH1 0x1 PUSH1 0xA0 SHL SUB DUP1 DUP6 AND PUSH1 0x0 SWAP1 DUP2 MSTORE PUSH1 0x1 PUSH1 0x20 SWAP1 DUP2 MSTORE PUSH1 0x40 DUP1 DUP4 KECCAK256 SWAP4 DUP8 AND DUP4 MSTORE SWAP3 SWAP1 MSTORE KECCAK256 DUP3 SWAP1 SSTORE DUP1 ISZERO PUSH2 0x80F JUMPI DUP3 PUSH1 0x1 PUSH1 0x1 PUSH1 0xA0 SHL SUB AND DUP5 PUSH1 0x1 PUSH1 0x1 PUSH1 0xA0 SHL SUB AND PUSH32 0x8C5BE1E5EBEC7D5BD14F71427D1E84F3DD0314C0F7B2291E5B200AC8C7C3B925 DUP5 PUSH1 0x40 MLOAD PUSH2 0xA54 SWAP2 DUP2 MSTORE PUSH1 0x20 ADD SWAP1 JUMP JUMPDEST PUSH1 0x40 MLOAD DUP1 SWAP2 SUB SWAP1 LOG3 POP POP POP POP JUMP JUMPDEST PUSH1 0x0 PUSH1 0x20 DUP1 DUP4 MSTORE DUP4 MLOAD DUP1 DUP3 DUP6 ADD MSTORE PUSH1 0x0 JUMPDEST DUP2 DUP2 LT ISZERO PUSH2 0xA8F JUMPI DUP6 DUP2 ADD DUP4 ADD MLOAD DUP6 DUP3 ADD PUSH1 0x40 ADD MSTORE DUP3 ADD PUSH2 0xA73 JUMP JUMPDEST POP PUSH1 0x0 PUSH1 0x40 DUP3 DUP7 ADD ADD MSTORE PUSH1 0x40 PUSH1 0x1F NOT PUSH1 0x1F DUP4 ADD AND DUP6 ADD ADD SWAP3 POP POP POP SWAP3 SWAP2 POP POP JUMP JUMPDEST DUP1 CALLDATALOAD PUSH1 0x1 PUSH1 0x1 PUSH1 0xA0 SHL SUB DUP2 AND DUP2 EQ PUSH2 0xAC7 JUMPI PUSH1 0x0 DUP1 REVERT JUMPDEST SWAP2 SWAP1 POP JUMP JUMPDEST PUSH1 0x0 DUP1 PUSH1 0x40 DUP4 DUP6 SUB SLT ISZERO PUSH2 0xADF JUMPI PUSH1 0x0 DUP1 REVERT JUMPDEST PUSH2 0xAE8 DUP4 PUSH2 0xAB0 JUMP JUMPDEST SWAP5 PUSH1 0x20 SWAP4 SWAP1 SWAP4 ADD CALLDATALOAD SWAP4 POP POP POP JUMP JUMPDEST PUSH1 0x0 DUP1 PUSH1 0x0 PUSH1 0x60 DUP5 DUP7 SUB SLT ISZERO PUSH2 0xB0B JUMPI PUSH1 0x0 DUP1 REVERT JUMPDEST PUSH2 0xB14 DUP5 PUSH2 0xAB0 JUMP JUMPDEST SWAP3 POP PUSH2 0xB22 PUSH1 0x20 DUP6 ADD PUSH2 0xAB0 JUMP JUMPDEST SWAP2 POP PUSH1 0x40 DUP5 ADD CALLDATALOAD SWAP1 POP SWAP3 POP SWAP3 POP SWAP3 JUMP JUMPDEST PUSH1 0x0 PUSH1 0x20 DUP3 DUP5 SUB SLT ISZERO PUSH2 0xB44 JUMPI PUSH1 0x0 DUP1 REVERT JUMPDEST POP CALLDATALOAD SWAP2 SWAP1 POP JUMP JUMPDEST PUSH1 0x0 PUSH1 0x20 DUP3 DUP5 SUB SLT ISZERO PUSH2 0xB5D JUMPI PUSH1 0x0 DUP1 REVERT JUMPDEST PUSH2 0x334 DUP3 PUSH2 0xAB0 JUMP JUMPDEST PUSH1 0x0 DUP1 PUSH1 0x40 DUP4 DUP6 SUB SLT ISZERO PUSH2 0xB79 JUMPI PUSH1 0x0 DUP1 REVERT JUMPDEST PUSH2 0xB82 DUP4 PUSH2 0xAB0 JUMP JUMPDEST SWAP2 POP PUSH2 0xB90 PUSH1 0x20 DUP5 ADD PUSH2 0xAB0 JUMP JUMPDEST SWAP1 POP SWAP3 POP SWAP3 SWAP1 POP JUMP JUMPDEST PUSH1 0x0 DUP1 PUSH1 0x0 PUSH1 0x60 DUP5 DUP7 SUB SLT ISZERO PUSH2 0xBAE JUMPI PUSH1 0x0 DUP1 REVERT JUMPDEST PUSH2 0xBB7 DUP5 PUSH2 0xAB0 JUMP JUMPDEST SWAP6 PUSH1 0x20 DUP6 ADD CALLDATALOAD SWAP6 POP PUSH1 0x40 SWAP1 SWAP5 ADD CALLDATALOAD SWAP4 SWAP3 POP POP POP JUMP JUMPDEST PUSH1 0x1 DUP2 DUP2 SHR SWAP1 DUP3 AND DUP1 PUSH2 0xBE0 JUMPI PUSH1 0x7F DUP3 AND SWAP2 POP JUMPDEST PUSH1 0x20 DUP3 LT DUP2 SUB PUSH2 0xC00 JUMPI PUSH4 0x4E487B71 PUSH1 0xE0 SHL PUSH1 0x0 MSTORE PUSH1 0x22 PUSH1 0x4 MSTORE PUSH1 0x24 PUSH1 0x0 REVERT JUMPDEST POP SWAP2 SWAP1 POP JUMP JUMPDEST PUSH1 0x20 DUP1 DUP3 MSTORE PUSH1 0x23 SWAP1 DUP3 ADD MSTORE PUSH32 0x574554483A20416D6F756E74206D757374206265206772656174657220746861 PUSH1 0x40 DUP3 ADD MSTORE PUSH3 0x6E203 PUSH1 0xEC SHL PUSH1 0x60 DUP3 ADD MSTORE PUSH1 0x80 ADD SWAP1 JUMP JUMPDEST PUSH1 0x20 DUP1 DUP3 MSTORE PUSH1 0x21 SWAP1 DUP3 ADD MSTORE PUSH32 0x574554483A2043616E6E6F74206D696E7420746F207A65726F20616464726573 PUSH1 0x40 DUP3 ADD MSTORE PUSH1 0x73 PUSH1 0xF8 SHL PUSH1 0x60 DUP3 ADD MSTORE PUSH1 0x80 ADD SWAP1 JUMP JUMPDEST DUP1 DUP3 ADD DUP1 DUP3 GT ISZERO PUSH2 0x337 JUMPI PUSH4 0x4E487B71 PUSH1 0xE0 SHL PUSH1 0x0 MSTORE PUSH1 0x11 PUSH1 0x4 MSTORE PUSH1 0x24 PUSH1 0x0 REVERT INVALID LOG2 PUSH5 0x6970667358 0x22 SLT KECCAK256 PUSH16 0xA35DFBDDC52C23AECF5AB7F3BBFEB18B 0xA6 PUSH1 0xEB MLOAD DUP4 SWAP13 CALLVALUE 0xED 0xB6 SHL 0xB0 PUSH22 0xD11FE764736F6C634300081400330000000000000000 "},"methodIdentifiers":{"allowance(address,address)":"dd62ed3e","approve(address,uint256)":"095ea7b3","balanceOf(address)":"70a08231","bridge()":"e78cea92","bridgeMint(address,uint256,bytes32)":"f661e631","bridgedAmounts(bytes32)":"2ee149cd","burn(uint256)":"42966c68","decimals()":"313ce567","emergencyMint(address,uint256)":"43785dc9","name()":"06fdde03","owner()":"8da5cb5b","renounceOwnership()":"715018a6","setBridge(address)":"8dd14802","symbol()":"95d89b41","totalSupply()":"18160ddd","transfer(address,uint256)":"a9059cbb","transferFrom(address,address,uint256)":"23b872dd","transferOwnership(address)":"f2fde38b"}}}}}