{
  "_format": "hh-sol-artifact-1",
  "contractName": "U2UBridge",
  "sourceName": "contracts/U2UBridge.sol",
  "abi": [
    {
      "inputs": [
        {
          "internalType": "address",
          "name": "_wethAddress",
          "type": "address"
        },
        {
          "internalType": "address",
          "name": "_relayer",
          "type": "address"
        }
      ],
      "stateMutability": "nonpayable",
      "type": "constructor"
    },
    {
      "inputs": [
        {
          "internalType": "address",
          "name": "owner",
          "type": "address"
        }
      ],
      "name": "OwnableInvalidOwner",
      "type": "error"
    },
    {
      "inputs": [
        {
          "internalType": "address",
          "name": "account",
          "type": "address"
        }
      ],
      "name": "OwnableUnauthorizedAccount",
      "type": "error"
    },
    {
      "anonymous": false,
      "inputs": [
        {
          "indexed": true,
          "internalType": "address",
          "name": "from",
          "type": "address"
        },
        {
          "indexed": true,
          "internalType": "address",
          "name": "to",
          "type": "address"
        },
        {
          "indexed": false,
          "internalType": "uint256",
          "name": "amount",
          "type": "uint256"
        },
        {
          "indexed": false,
          "internalType": "uint256",
          "name": "destinationChainId",
          "type": "uint256"
        },
        {
          "indexed": false,
          "internalType": "bytes32",
          "name": "transferId",
          "type": "bytes32"
        }
      ],
      "name": "CrossChainTransfer",
      "type": "event"
    },
    {
      "anonymous": false,
      "inputs": [
        {
          "indexed": true,
          "internalType": "address",
          "name": "previousOwner",
          "type": "address"
        },
        {
          "indexed": true,
          "internalType": "address",
          "name": "newOwner",
          "type": "address"
        }
      ],
      "name": "OwnershipTransferred",
      "type": "event"
    },
    {
      "anonymous": false,
      "inputs": [
        {
          "indexed": true,
          "internalType": "address",
          "name": "to",
          "type": "address"
        },
        {
          "indexed": false,
          "internalType": "uint256",
          "name": "amount",
          "type": "uint256"
        },
        {
          "indexed": true,
          "internalType": "bytes32",
          "name": "transferId",
          "type": "bytes32"
        }
      ],
      "name": "WETHMinted",
      "type": "event"
    },
    {
      "inputs": [
        {
          "internalType": "uint256",
          "name": "destinationChainId",
          "type": "uint256"
        },
        {
          "internalType": "address",
          "name": "to",
          "type": "address"
        }
      ],
      "name": "bridge",
      "outputs": [],
      "stateMutability": "payable",
      "type": "function"
    },
    {
      "inputs": [],
      "name": "getBalance",
      "outputs": [
        {
          "internalType": "uint256",
          "name": "",
          "type": "uint256"
        }
      ],
      "stateMutability": "view",
      "type": "function"
    },
    {
      "inputs": [
        {
          "internalType": "bytes32",
          "name": "transferId",
          "type": "bytes32"
        }
      ],
      "name": "isTransferProcessed",
      "outputs": [
        {
          "internalType": "bool",
          "name": "",
          "type": "bool"
        }
      ],
      "stateMutability": "view",
      "type": "function"
    },
    {
      "inputs": [
        {
          "internalType": "address",
          "name": "to",
          "type": "address"
        },
        {
          "internalType": "uint256",
          "name": "amount",
          "type": "uint256"
        },
        {
          "internalType": "bytes32",
          "name": "transferId",
          "type": "bytes32"
        }
      ],
      "name": "mintWETH",
      "outputs": [],
      "stateMutability": "nonpayable",
      "type": "function"
    },
    {
      "inputs": [],
      "name": "owner",
      "outputs": [
        {
          "internalType": "address",
          "name": "",
          "type": "address"
        }
      ],
      "stateMutability": "view",
      "type": "function"
    },
    {
      "inputs": [
        {
          "internalType": "bytes32",
          "name": "",
          "type": "bytes32"
        }
      ],
      "name": "processedTransfers",
      "outputs": [
        {
          "internalType": "bool",
          "name": "",
          "type": "bool"
        }
      ],
      "stateMutability": "view",
      "type": "function"
    },
    {
      "inputs": [],
      "name": "relayer",
      "outputs": [
        {
          "internalType": "address",
          "name": "",
          "type": "address"
        }
      ],
      "stateMutability": "view",
      "type": "function"
    },
    {
      "inputs": [],
      "name": "renounceOwnership",
      "outputs": [],
      "stateMutability": "nonpayable",
      "type": "function"
    },
    {
      "inputs": [
        {
          "internalType": "address",
          "name": "_relayer",
          "type": "address"
        }
      ],
      "name": "setRelayer",
      "outputs": [],
      "stateMutability": "nonpayable",
      "type": "function"
    },
    {
      "inputs": [
        {
          "internalType": "address",
          "name": "_wethAddress",
          "type": "address"
        }
      ],
      "name": "setWETH",
      "outputs": [],
      "stateMutability": "nonpayable",
      "type": "function"
    },
    {
      "inputs": [
        {
          "internalType": "address",
          "name": "newOwner",
          "type": "address"
        }
      ],
      "name": "transferOwnership",
      "outputs": [],
      "stateMutability": "nonpayable",
      "type": "function"
    },
    {
      "inputs": [],
      "name": "weth",
      "outputs": [
        {
          "internalType": "contract WETH",
          "name": "",
          "type": "address"
        }
      ],
      "stateMutability": "view",
      "type": "function"
    },
    {
      "inputs": [
        {
          "internalType": "uint256",
          "name": "amount",
          "type": "uint256"
        }
      ],
      "name": "withdrawETH",
      "outputs": [],
      "stateMutability": "nonpayable",
      "type": "function"
    }
  ],
  "bytecode": "0x608060405234801561001057600080fd5b50604051610ad8380380610ad883398101604081905261002f916100fc565b338061005557604051631e4fbdf760e01b81526000600482015260240160405180910390fd5b61005e81610090565b50600180546001600160a01b039384166001600160a01b0319918216179091556002805492909316911617905561012f565b600080546001600160a01b038381166001600160a01b0319831681178455604051919092169283917f8be0079c531659141344cd1fd0a4f28419497f9722a3daafe3b4186f6b6457e09190a35050565b80516001600160a01b03811681146100f757600080fd5b919050565b6000806040838503121561010f57600080fd5b610118836100e0565b9150610126602084016100e0565b90509250929050565b61099a8061013e6000396000f3fe6080604052600436106100c25760003560e01c80638406c0791161007f578063dd910d7511610059578063dd910d7514610207578063e7567ed514610237578063f14210a614610257578063f2fde38b1461027757600080fd5b80638406c079146101b65780638da5cb5b146101d65780639394d2e8146101f457600080fd5b80630d171620146100c757806312065fe01461010c5780633fc8cef3146101275780635b769f3c1461015f5780636548e9bc14610181578063715018a6146101a1575b600080fd5b3480156100d357600080fd5b506100f76100e23660046108ae565b60009081526003602052604090205460ff1690565b60405190151581526020015b60405180910390f35b34801561011857600080fd5b50604051478152602001610103565b34801561013357600080fd5b50600154610147906001600160a01b031681565b6040516001600160a01b039091168152602001610103565b34801561016b57600080fd5b5061017f61017a3660046108e3565b610297565b005b34801561018d57600080fd5b5061017f61019c3660046108e3565b610313565b3480156101ad57600080fd5b5061017f610393565b3480156101c257600080fd5b50600254610147906001600160a01b031681565b3480156101e257600080fd5b506000546001600160a01b0316610147565b61017f610202366004610905565b6103a7565b34801561021357600080fd5b506100f76102223660046108ae565b60036020526000908152604090205460ff1681565b34801561024357600080fd5b5061017f610252366004610931565b610548565b34801561026357600080fd5b5061017f6102723660046108ae565b610767565b34801561028357600080fd5b5061017f6102923660046108e3565b6107f3565b61029f610831565b6001600160a01b0381166102f15760405162461bcd60e51b8152602060048201526014602482015273496e76616c69642057455448206164647265737360601b60448201526064015b60405180910390fd5b600180546001600160a01b0319166001600160a01b0392909216919091179055565b61031b610831565b6001600160a01b0381166103715760405162461bcd60e51b815260206004820152601760248201527f496e76616c69642072656c61796572206164647265737300000000000000000060448201526064016102e8565b600280546001600160a01b0319166001600160a01b0392909216919091179055565b61039b610831565b6103a5600061085e565b565b600034116103f75760405162461bcd60e51b815260206004820152601d60248201527f416d6f756e74206d7573742062652067726561746572207468616e203000000060448201526064016102e8565b6001600160a01b0381166104495760405162461bcd60e51b8152602060048201526019602482015278496e76616c696420726563697069656e74206164647265737360381b60448201526064016102e8565b816027146104995760405162461bcd60e51b815260206004820152601960248201527f496e76616c69642064657374696e6174696f6e20636861696e0000000000000060448201526064016102e8565b6040516bffffffffffffffffffffffff1933606090811b8216602084015283901b166034820152346048820152606881018390524260888201524360a882015260009060c80160408051601f19818403018152828252805160209182012034845290830186905290820181905291506001600160a01b0383169033907f91934a1949db5bcb76f8dc42f00143abe7d2df0b55194143d6d74dbd035cf146906060015b60405180910390a3505050565b6002546001600160a01b031633146105a25760405162461bcd60e51b815260206004820152601a60248201527f4f6e6c792072656c617965722063616e206d696e74205745544800000000000060448201526064016102e8565b6001600160a01b0383166105f45760405162461bcd60e51b8152602060048201526019602482015278496e76616c696420726563697069656e74206164647265737360381b60448201526064016102e8565b600082116106445760405162461bcd60e51b815260206004820152601d60248201527f416d6f756e74206d7573742062652067726561746572207468616e203000000060448201526064016102e8565b60008181526003602052604090205460ff16156106a35760405162461bcd60e51b815260206004820152601a60248201527f5472616e7366657220616c72656164792070726f63657373656400000000000060448201526064016102e8565b60008181526003602052604090819020805460ff1916600190811790915554905163f661e63160e01b81526001600160a01b03858116600483015260248201859052604482018490529091169063f661e63190606401600060405180830381600087803b15801561071357600080fd5b505af1158015610727573d6000803e3d6000fd5b5050505080836001600160a01b03167fbb00edbe8b00c53cf9f5fda154bb2e8c8591111d3860aa6080c4ebe9233607c38460405161053b91815260200190565b61076f610831565b804710156107b65760405162461bcd60e51b8152602060048201526014602482015273496e73756666696369656e742062616c616e636560601b60448201526064016102e8565b600080546040516001600160a01b039091169183156108fc02918491818181858888f193505050501580156107ef573d6000803e3d6000fd5b5050565b6107fb610831565b6001600160a01b03811661082557604051631e4fbdf760e01b8152600060048201526024016102e8565b61082e8161085e565b50565b6000546001600160a01b031633146103a55760405163118cdaa760e01b81523360048201526024016102e8565b600080546001600160a01b038381166001600160a01b0319831681178455604051919092169283917f8be0079c531659141344cd1fd0a4f28419497f9722a3daafe3b4186f6b6457e09190a35050565b6000602082840312156108c057600080fd5b5035919050565b80356001600160a01b03811681146108de57600080fd5b919050565b6000602082840312156108f557600080fd5b6108fe826108c7565b9392505050565b6000806040838503121561091857600080fd5b82359150610928602084016108c7565b90509250929050565b60008060006060848603121561094657600080fd5b61094f846108c7565b9560208501359550604090940135939250505056fea2646970667358221220356261b1831d340d7967cb8de7825d23b0e6cffb0059aa58e1a6f5208a7f194964736f6c63430008140033",
  "linkReferences": {},
  "deployedLinkReferences": {}
}