{
  "_format": "hh-sol-artifact-1",
  "contractName": "WETH",
  "sourceName": "contracts/WETH.sol",
  "abi": [
    {
      "inputs": [],
      "stateMutability": "nonpayable",
      "type": "constructor"
    },
    {
      "inputs": [
        {
          "internalType": "address",
          "name": "spender",
          "type": "address"
        },
        {
          "internalType": "uint256",
          "name": "allowance",
          "type": "uint256"
        },
        {
          "internalType": "uint256",
          "name": "needed",
          "type": "uint256"
        }
      ],
      "name": "ERC20InsufficientAllowance",
      "type": "error"
    },
    {
      "inputs": [
        {
          "internalType": "address",
          "name": "sender",
          "type": "address"
        },
        {
          "internalType": "uint256",
          "name": "balance",
          "type": "uint256"
        },
        {
          "internalType": "uint256",
          "name": "needed",
          "type": "uint256"
        }
      ],
      "name": "ERC20InsufficientBalance",
      "type": "error"
    },
    {
      "inputs": [
        {
          "internalType": "address",
          "name": "approver",
          "type": "address"
        }
      ],
      "name": "ERC20InvalidApprover",
      "type": "error"
    },
    {
      "inputs": [
        {
          "internalType": "address",
          "name": "receiver",
          "type": "address"
        }
      ],
      "name": "ERC20InvalidReceiver",
      "type": "error"
    },
    {
      "inputs": [
        {
          "internalType": "address",
          "name": "sender",
          "type": "address"
        }
      ],
      "name": "ERC20InvalidSender",
      "type": "error"
    },
    {
      "inputs": [
        {
          "internalType": "address",
          "name": "spender",
          "type": "address"
        }
      ],
      "name": "ERC20InvalidSpender",
      "type": "error"
    },
    {
      "inputs": [
        {
          "internalType": "address",
          "name": "owner",
          "type": "address"
        }
      ],
      "name": "OwnableInvalidOwner",
      "type": "error"
    },
    {
      "inputs": [
        {
          "internalType": "address",
          "name": "account",
          "type": "address"
        }
      ],
      "name": "OwnableUnauthorizedAccount",
      "type": "error"
    },
    {
      "anonymous": false,
      "inputs": [
        {
          "indexed": true,
          "internalType": "address",
          "name": "owner",
          "type": "address"
        },
        {
          "indexed": true,
          "internalType": "address",
          "name": "spender",
          "type": "address"
        },
        {
          "indexed": false,
          "internalType": "uint256",
          "name": "value",
          "type": "uint256"
        }
      ],
      "name": "Approval",
      "type": "event"
    },
    {
      "anonymous": false,
      "inputs": [
        {
          "indexed": true,
          "internalType": "address",
          "name": "to",
          "type": "address"
        },
        {
          "indexed": false,
          "internalType": "uint256",
          "name": "amount",
          "type": "uint256"
        },
        {
          "indexed": true,
          "internalType": "bytes32",
          "name": "transferId",
          "type": "bytes32"
        }
      ],
      "name": "BridgeMint",
      "type": "event"
    },
    {
      "anonymous": false,
      "inputs": [
        {
          "indexed": true,
          "internalType": "address",
          "name": "account",
          "type": "address"
        },
        {
          "indexed": false,
          "internalType": "uint256",
          "name": "amount",
          "type": "uint256"
        }
      ],
      "name": "Deposit",
      "type": "event"
    },
    {
      "anonymous": false,
      "inputs": [
        {
          "indexed": true,
          "internalType": "address",
          "name": "previousOwner",
          "type": "address"
        },
        {
          "indexed": true,
          "internalType": "address",
          "name": "newOwner",
          "type": "address"
        }
      ],
      "name": "OwnershipTransferred",
      "type": "event"
    },
    {
      "anonymous": false,
      "inputs": [
        {
          "indexed": true,
          "internalType": "address",
          "name": "from",
          "type": "address"
        },
        {
          "indexed": true,
          "internalType": "address",
          "name": "to",
          "type": "address"
        },
        {
          "indexed": false,
          "internalType": "uint256",
          "name": "value",
          "type": "uint256"
        }
      ],
      "name": "Transfer",
      "type": "event"
    },
    {
      "anonymous": false,
      "inputs": [
        {
          "indexed": true,
          "internalType": "address",
          "name": "account",
          "type": "address"
        },
        {
          "indexed": false,
          "internalType": "uint256",
          "name": "amount",
          "type": "uint256"
        }
      ],
      "name": "Withdrawal",
      "type": "event"
    },
    {
      "inputs": [
        {
          "internalType": "address",
          "name": "owner",
          "type": "address"
        },
        {
          "internalType": "address",
          "name": "spender",
          "type": "address"
        }
      ],
      "name": "allowance",
      "outputs": [
        {
          "internalType": "uint256",
          "name": "",
          "type": "uint256"
        }
      ],
      "stateMutability": "view",
      "type": "function"
    },
    {
      "inputs": [
        {
          "internalType": "address",
          "name": "spender",
          "type": "address"
        },
        {
          "internalType": "uint256",
          "name": "amount",
          "type": "uint256"
        }
      ],
      "name": "approve",
      "outputs": [
        {
          "internalType": "bool",
          "name": "",
          "type": "bool"
        }
      ],
      "stateMutability": "nonpayable",
      "type": "function"
    },
    {
      "inputs": [
        {
          "internalType": "address",
          "name": "account",
          "type": "address"
        }
      ],
      "name": "balanceOf",
      "outputs": [
        {
          "internalType": "uint256",
          "name": "",
          "type": "uint256"
        }
      ],
      "stateMutability": "view",
      "type": "function"
    },
    {
      "inputs": [],
      "name": "bridge",
      "outputs": [
        {
          "internalType": "address",
          "name": "",
          "type": "address"
        }
      ],
      "stateMutability": "view",
      "type": "function"
    },
    {
      "inputs": [
        {
          "internalType": "address",
          "name": "to",
          "type": "address"
        },
        {
          "internalType": "uint256",
          "name": "amount",
          "type": "uint256"
        },
        {
          "internalType": "bytes32",
          "name": "transferId",
          "type": "bytes32"
        }
      ],
      "name": "bridgeMint",
      "outputs": [],
      "stateMutability": "nonpayable",
      "type": "function"
    },
    {
      "inputs": [
        {
          "internalType": "bytes32",
          "name": "",
          "type": "bytes32"
        }
      ],
      "name": "bridgedAmounts",
      "outputs": [
        {
          "internalType": "uint256",
          "name": "",
          "type": "uint256"
        }
      ],
      "stateMutability": "view",
      "type": "function"
    },
    {
      "inputs": [
        {
          "internalType": "uint256",
          "name": "amount",
          "type": "uint256"
        }
      ],
      "name": "burn",
      "outputs": [],
      "stateMutability": "nonpayable",
      "type": "function"
    },
    {
      "inputs": [],
      "name": "decimals",
      "outputs": [
        {
          "internalType": "uint8",
          "name": "",
          "type": "uint8"
        }
      ],
      "stateMutability": "view",
      "type": "function"
    },
    {
      "inputs": [
        {
          "internalType": "address",
          "name": "to",
          "type": "address"
        },
        {
          "internalType": "uint256",
          "name": "amount",
          "type": "uint256"
        }
      ],
      "name": "emergencyMint",
      "outputs": [],
      "stateMutability": "nonpayable",
      "type": "function"
    },
    {
      "inputs": [],
      "name": "name",
      "outputs": [
        {
          "internalType": "string",
          "name": "",
          "type": "string"
        }
      ],
      "stateMutability": "view",
      "type": "function"
    },
    {
      "inputs": [],
      "name": "owner",
      "outputs": [
        {
          "internalType": "address",
          "name": "",
          "type": "address"
        }
      ],
      "stateMutability": "view",
      "type": "function"
    },
    {
      "inputs": [],
      "name": "renounceOwnership",
      "outputs": [],
      "stateMutability": "nonpayable",
      "type": "function"
    },
    {
      "inputs": [
        {
          "internalType": "address",
          "name": "_bridge",
          "type": "address"
        }
      ],
      "name": "setBridge",
      "outputs": [],
      "stateMutability": "nonpayable",
      "type": "function"
    },
    {
      "inputs": [],
      "name": "symbol",
      "outputs": [
        {
          "internalType": "string",
          "name": "",
          "type": "string"
        }
      ],
      "stateMutability": "view",
      "type": "function"
    },
    {
      "inputs": [],
      "name": "totalSupply",
      "outputs": [
        {
          "internalType": "uint256",
          "name": "",
          "type": "uint256"
        }
      ],
      "stateMutability": "view",
      "type": "function"
    },
    {
      "inputs": [
        {
          "internalType": "address",
          "name": "to",
          "type": "address"
        },
        {
          "internalType": "uint256",
          "name": "amount",
          "type": "uint256"
        }
      ],
      "name": "transfer",
      "outputs": [
        {
          "internalType": "bool",
          "name": "",
          "type": "bool"
        }
      ],
      "stateMutability": "nonpayable",
      "type": "function"
    },
    {
      "inputs": [
        {
          "internalType": "address",
          "name": "from",
          "type": "address"
        },
        {
          "internalType": "address",
          "name": "to",
          "type": "address"
        },
        {
          "internalType": "uint256",
          "name": "amount",
          "type": "uint256"
        }
      ],
      "name": "transferFrom",
      "outputs": [
        {
          "internalType": "bool",
          "name": "",
          "type": "bool"
        }
      ],
      "stateMutability": "nonpayable",
      "type": "function"
    },
    {
      "inputs": [
        {
          "internalType": "address",
          "name": "newOwner",
          "type": "address"
        }
      ],
      "name": "transferOwnership",
      "outputs": [],
      "stateMutability": "nonpayable",
      "type": "function"
    }
  ],
  "bytecode": "0x60806040523480156200001157600080fd5b50336040518060400160405280600b81526020016a0aee4c2e0e0cac8408aa8960ab1b815250604051806040016040528060048152602001630ae8aa8960e31b8152508160039081620000659190620001af565b506004620000748282620001af565b5050506001600160a01b038116620000a657604051631e4fbdf760e01b81526000600482015260240160405180910390fd5b620000b181620000b8565b506200027b565b600580546001600160a01b038381166001600160a01b0319831681179093556040519116919082907f8be0079c531659141344cd1fd0a4f28419497f9722a3daafe3b4186f6b6457e090600090a35050565b634e487b7160e01b600052604160045260246000fd5b600181811c908216806200013557607f821691505b6020821081036200015657634e487b7160e01b600052602260045260246000fd5b50919050565b601f821115620001aa57600081815260208120601f850160051c81016020861015620001855750805b601f850160051c820191505b81811015620001a65782815560010162000191565b5050505b505050565b81516001600160401b03811115620001cb57620001cb6200010a565b620001e381620001dc845462000120565b846200015c565b602080601f8311600181146200021b5760008415620002025750858301515b600019600386901b1c1916600185901b178555620001a6565b600085815260208120601f198616915b828110156200024c578886015182559484019460019091019084016200022b565b50858210156200026b5787850151600019600388901b60f8161c191681555b5050505050600190811b01905550565b610ce1806200028b6000396000f3fe608060405234801561001057600080fd5b50600436106101165760003560e01c8063715018a6116100a2578063a9059cbb11610071578063a9059cbb14610237578063dd62ed3e1461024a578063e78cea921461025d578063f2fde38b14610270578063f661e6311461028357600080fd5b8063715018a6146101ef5780638da5cb5b146101f75780638dd148021461021c57806395d89b411461022f57600080fd5b80632ee149cd116100e95780632ee149cd14610185578063313ce567146101a557806342966c68146101b457806343785dc9146101c957806370a08231146101dc57600080fd5b806306fdde031461011b578063095ea7b31461013957806318160ddd1461015c57806323b872dd14610172575b600080fd5b610123610296565b6040516101309190610a62565b60405180910390f35b61014c610147366004610acc565b610328565b6040519015158152602001610130565b61016461033d565b604051908152602001610130565b61014c610180366004610af6565b61034d565b610164610193366004610b32565b60076020526000908152604090205481565b60405160128152602001610130565b6101c76101c2366004610b32565b610362565b005b6101c76101d7366004610acc565b610425565b6101646101ea366004610b4b565b610481565b6101c761049f565b6005546001600160a01b03165b6040516001600160a01b039091168152602001610130565b6101c761022a366004610b4b565b6104b3565b6101236104dd565b61014c610245366004610acc565b6104ec565b610164610258366004610b66565b6104f8565b600654610204906001600160a01b031681565b6101c761027e366004610b4b565b610525565b6101c7610291366004610b99565b610563565b6060600380546102a590610bcc565b80601f01602080910402602001604051908101604052809291908181526020018280546102d190610bcc565b801561031e5780601f106102f35761010080835404028352916020019161031e565b820191906000526020600020905b81548152906001019060200180831161030157829003601f168201915b5050505050905090565b60006103348383610667565b90505b92915050565b600061034860025490565b905090565b600061035a84848461067f565b949350505050565b6000811161038b5760405162461bcd60e51b815260040161038290610c06565b60405180910390fd5b8061039533610481565b10156103e35760405162461bcd60e51b815260206004820152601a60248201527f574554483a20496e73756666696369656e742062616c616e63650000000000006044820152606401610382565b6103ed33826106a3565b60405181815233907f7fcf532c15f0a6db0bd6d0e038bea71d30d808c7d98cb3bf7268a95bf5081b659060200160405180910390a250565b61042d6106d9565b6001600160a01b0382166104535760405162461bcd60e51b815260040161038290610c49565b600081116104735760405162461bcd60e51b815260040161038290610c06565b61047d8282610706565b5050565b6001600160a01b038116600090815260208190526040812054610337565b6104a76106d9565b6104b1600061073c565b565b6104bb6106d9565b600680546001600160a01b0319166001600160a01b0392909216919091179055565b6060600480546102a590610bcc565b6000610334838361078e565b6001600160a01b038083166000908152600160209081526040808320938516835292905290812054610334565b61052d6106d9565b6001600160a01b03811661055757604051631e4fbdf760e01b815260006004820152602401610382565b6105608161073c565b50565b6006546001600160a01b031633146105bd5760405162461bcd60e51b815260206004820152601a60248201527f574554483a204f6e6c79206272696467652063616e206d696e740000000000006044820152606401610382565b6001600160a01b0383166105e35760405162461bcd60e51b815260040161038290610c49565b600082116106035760405162461bcd60e51b815260040161038290610c06565b600081815260076020526040902082905561061e8383610706565b80836001600160a01b03167f096d591342eea46377f5d86fed8a91ab1e9be20a7c3f5d698cecc1d4f698680a8460405161065a91815260200190565b60405180910390a3505050565b60003361067581858561079c565b5060019392505050565b60003361068d8582856107ae565b610698858585610815565b506001949350505050565b6001600160a01b0382166106cd57604051634b637e8f60e11b815260006004820152602401610382565b61047d82600083610870565b6005546001600160a01b031633146104b15760405163118cdaa760e01b8152336004820152602401610382565b6001600160a01b0382166107305760405163ec442f0560e01b815260006004820152602401610382565b61047d60008383610870565b600580546001600160a01b038381166001600160a01b0319831681179093556040519116919082907f8be0079c531659141344cd1fd0a4f28419497f9722a3daafe3b4186f6b6457e090600090a35050565b600033610675818585610815565b6107a9838383600161098d565b505050565b60006107ba84846104f8565b905060001981101561080f578181101561080057604051637dc7a0d960e11b81526001600160a01b03841660048201526024810182905260448101839052606401610382565b61080f8484848403600061098d565b50505050565b6001600160a01b03831661083f57604051634b637e8f60e11b815260006004820152602401610382565b6001600160a01b0382166108695760405163ec442f0560e01b815260006004820152602401610382565b6107a98383835b6001600160a01b03831661089b5780600260008282546108909190610c8a565b9091555061090d9050565b6001600160a01b038316600090815260208190526040902054818110156108ee5760405163391434e360e21b81526001600160a01b03851660048201526024810182905260448101839052606401610382565b6001600160a01b03841660009081526020819052604090209082900390555b6001600160a01b03821661092957600280548290039055610948565b6001600160a01b03821660009081526020819052604090208054820190555b816001600160a01b0316836001600160a01b03167fddf252ad1be2c89b69c2b068fc378daa952ba7f163c4a11628f55a4df523b3ef8360405161065a91815260200190565b6001600160a01b0384166109b75760405163e602df0560e01b815260006004820152602401610382565b6001600160a01b0383166109e157604051634a1406b160e11b815260006004820152602401610382565b6001600160a01b038085166000908152600160209081526040808320938716835292905220829055801561080f57826001600160a01b0316846001600160a01b03167f8c5be1e5ebec7d5bd14f71427d1e84f3dd0314c0f7b2291e5b200ac8c7c3b92584604051610a5491815260200190565b60405180910390a350505050565b600060208083528351808285015260005b81811015610a8f57858101830151858201604001528201610a73565b506000604082860101526040601f19601f8301168501019250505092915050565b80356001600160a01b0381168114610ac757600080fd5b919050565b60008060408385031215610adf57600080fd5b610ae883610ab0565b946020939093013593505050565b600080600060608486031215610b0b57600080fd5b610b1484610ab0565b9250610b2260208501610ab0565b9150604084013590509250925092565b600060208284031215610b4457600080fd5b5035919050565b600060208284031215610b5d57600080fd5b61033482610ab0565b60008060408385031215610b7957600080fd5b610b8283610ab0565b9150610b9060208401610ab0565b90509250929050565b600080600060608486031215610bae57600080fd5b610bb784610ab0565b95602085013595506040909401359392505050565b600181811c90821680610be057607f821691505b602082108103610c0057634e487b7160e01b600052602260045260246000fd5b50919050565b60208082526023908201527f574554483a20416d6f756e74206d75737420626520677265617465722074686160408201526206e20360ec1b606082015260800190565b60208082526021908201527f574554483a2043616e6e6f74206d696e7420746f207a65726f206164647265736040820152607360f81b606082015260800190565b8082018082111561033757634e487b7160e01b600052601160045260246000fdfea26469706673582212206fa35dfbddc52c23aecf5ab7f3bbfeb18ba660eb51839c34edb61bb075d11fe764736f6c63430008140033",
  "linkReferences": {},
  "deployedLinkReferences": {}
}