{
  "_format": "hh-sol-artifact-1",
  "contractName": "SepoliaBridge",
  "sourceName": "contracts/SepoliaBridge.sol",
  "abi": [
    {
      "inputs": [
        {
          "internalType": "address",
          "name": "_relayer",
          "type": "address"
        }
      ],
      "stateMutability": "nonpayable",
      "type": "constructor"
    },
    {
      "anonymous": false,
      "inputs": [
        {
          "indexed": true,
          "internalType": "address",
          "name": "recipient",
          "type": "address"
        },
        {
          "indexed": false,
          "internalType": "uint256",
          "name": "amount",
          "type": "uint256"
        },
        {
          "indexed": true,
          "internalType": "bytes32",
          "name": "transferId",
          "type": "bytes32"
        },
        {
          "indexed": false,
          "internalType": "uint256",
          "name": "timestamp",
          "type": "uint256"
        }
      ],
      "name": "BridgeCompleted",
      "type": "event"
    },
    {
      "inputs": [
        {
          "internalType": "address",
          "name": "recipient",
          "type": "address"
        },
        {
          "internalType": "uint256",
          "name": "amount",
          "type": "uint256"
        },
        {
          "internalType": "bytes32",
          "name": "transferId",
          "type": "bytes32"
        }
      ],
      "name": "completeBridge",
      "outputs": [],
      "stateMutability": "nonpayable",
      "type": "function"
    },
    {
      "inputs": [
        {
          "internalType": "bytes32",
          "name": "",
          "type": "bytes32"
        }
      ],
      "name": "completedTransfers",
      "outputs": [
        {
          "internalType": "bool",
          "name": "",
          "type": "bool"
        }
      ],
      "stateMutability": "view",
      "type": "function"
    },
    {
      "inputs": [],
      "name": "deposit",
      "outputs": [],
      "stateMutability": "payable",
      "type": "function"
    },
    {
      "inputs": [],
      "name": "getBalance",
      "outputs": [
        {
          "internalType": "uint256",
          "name": "",
          "type": "uint256"
        }
      ],
      "stateMutability": "view",
      "type": "function"
    },
    {
      "inputs": [
        {
          "internalType": "bytes32",
          "name": "transferId",
          "type": "bytes32"
        }
      ],
      "name": "isTransferCompleted",
      "outputs": [
        {
          "internalType": "bool",
          "name": "",
          "type": "bool"
        }
      ],
      "stateMutability": "view",
      "type": "function"
    },
    {
      "inputs": [],
      "name": "owner",
      "outputs": [
        {
          "internalType": "address",
          "name": "",
          "type": "address"
        }
      ],
      "stateMutability": "view",
      "type": "function"
    },
    {
      "inputs": [],
      "name": "relayer",
      "outputs": [
        {
          "internalType": "address",
          "name": "",
          "type": "address"
        }
      ],
      "stateMutability": "view",
      "type": "function"
    },
    {
      "inputs": [
        {
          "internalType": "address",
          "name": "newRelayer",
          "type": "address"
        }
      ],
      "name": "setRelayer",
      "outputs": [],
      "stateMutability": "nonpayable",
      "type": "function"
    },
    {
      "inputs": [],
      "name": "withdraw",
      "outputs": [],
      "stateMutability": "nonpayable",
      "type": "function"
    }
  ],
  "bytecode": "0x608060405234801561001057600080fd5b5060405161077e38038061077e83398101604081905261002f91610062565b60008054336001600160a01b031991821617909155600180549091166001600160a01b0392909216919091179055610092565b60006020828403121561007457600080fd5b81516001600160a01b038116811461008b57600080fd5b9392505050565b6106dd806100a16000396000f3fe6080604052600436106100865760003560e01c80638da5cb5b116100595780638da5cb5b1461011a578063927dd2401461013a578063aa4efa5b1461017a578063d0e30db0146101aa578063e35e6943146101b257600080fd5b806312065fe01461008b5780633ccfd60b146100ab5780636548e9bc146100c25780638406c079146100e2575b600080fd5b34801561009757600080fd5b506040514781526020015b60405180910390f35b3480156100b757600080fd5b506100c06101d2565b005b3480156100ce57600080fd5b506100c06100dd3660046105f8565b610242565b3480156100ee57600080fd5b50600154610102906001600160a01b031681565b6040516001600160a01b0390911681526020016100a2565b34801561012657600080fd5b50600054610102906001600160a01b031681565b34801561014657600080fd5b5061016a61015536600461061a565b60026020526000908152604090205460ff1681565b60405190151581526020016100a2565b34801561018657600080fd5b5061016a61019536600461061a565b60009081526002602052604090205460ff1690565b6100c06102e4565b3480156101be57600080fd5b506100c06101cd366004610633565b610336565b6000546001600160a01b031633146102055760405162461bcd60e51b81526004016101fc90610666565b60405180910390fd5b600080546040516001600160a01b03909116914780156108fc02929091818181858888f1935050505015801561023f573d6000803e3d6000fd5b50565b6000546001600160a01b0316331461026c5760405162461bcd60e51b81526004016101fc90610666565b6001600160a01b0381166102c25760405162461bcd60e51b815260206004820152601760248201527f496e76616c69642072656c61796572206164647265737300000000000000000060448201526064016101fc565b600180546001600160a01b0319166001600160a01b0392909216919091179055565b600034116103345760405162461bcd60e51b815260206004820152601d60248201527f416d6f756e74206d7573742062652067726561746572207468616e203000000060448201526064016101fc565b565b6001546001600160a01b0316331461039c5760405162461bcd60e51b815260206004820152602360248201527f4f6e6c792072656c617965722063616e2063616c6c20746869732066756e637460448201526234b7b760e91b60648201526084016101fc565b6001600160a01b0383166103e65760405162461bcd60e51b8152602060048201526011602482015270125b9d985b1a59081c9958da5c1a595b9d607a1b60448201526064016101fc565b600082116104365760405162461bcd60e51b815260206004820152601d60248201527f416d6f756e74206d7573742062652067726561746572207468616e203000000060448201526064016101fc565b60008181526002602052604090205460ff16156104955760405162461bcd60e51b815260206004820152601a60248201527f5472616e7366657220616c726561647920636f6d706c6574656400000000000060448201526064016101fc565b814710156104e55760405162461bcd60e51b815260206004820152601d60248201527f496e73756666696369656e7420636f6e74726163742062616c616e636500000060448201526064016101fc565b600081815260026020526040808220805460ff19166001179055516001600160a01b0385169084908381818185875af1925050503d8060008114610545576040519150601f19603f3d011682016040523d82523d6000602084013e61054a565b606091505b50509050806105915760405162461bcd60e51b8152602060048201526013602482015272115512081d1c985b9cd9995c8819985a5b1959606a1b60448201526064016101fc565b6040805184815242602082015283916001600160a01b038716917f9243d8ad6d0b4a129a206c6ec6d685cbeb003e02ea2ac9ad95ef75fddcae6821910160405180910390a350505050565b80356001600160a01b03811681146105f357600080fd5b919050565b60006020828403121561060a57600080fd5b610613826105dc565b9392505050565b60006020828403121561062c57600080fd5b5035919050565b60008060006060848603121561064857600080fd5b610651846105dc565b95602085013595506040909401359392505050565b60208082526021908201527f4f6e6c79206f776e65722063616e2063616c6c20746869732066756e6374696f6040820152603760f91b60608201526080019056fea2646970667358221220666715487757f62cf4d476b291af6eb52ac0c025707075782c3114b612ee789064736f6c63430008140033",
  "linkReferences": {},
  "deployedLinkReferences": {}
}